:07FAEA008E3F8F408D412289
:050006008E3F8F402237
:0400160075D9BF22B7
:03002600C2AF2244
:09FAD80012001A1200220200299A
:09FAE1002094037F02227F012220
:10FA9900E5EF20E108E5EF30E6037F02227F01224E
:04001E0075EF122246
:01001A0022C3
:0100220022BB
:03002E008F4722D7
:06FAB600010A00010B0033
:1003DD00E4FF7DFF7CFBED70011CF5827583FBE472
:0E03ED0093B43D0A15828C83E493B4C2010FD1
:0103FB0022DF
:10FA7200E511B40110E512700C754A017518027F88
:06FA820001FE12000E223D
:10FA000090FCFEE493FFE582158270021583751861
:10FA1000038F197902E4FEEF14FDEEC39D5017E445
:10FA200093FDAC010974182CF8A605E582158270C7
:10FA30000215830E80E190FBFDE493FFE5821582C1
:10FA400070021583EF142519F519E4FEEF14FDEE8D
:10FA5000C39D5017E493FDAC010974182CF8A6055A
:10FA6000E5821582700215830E80E1AF017E0002EF
:02FA7000000E86
:1003210085133E85143D85153C85163BE4FF7E040F
:10033100FDFCAB3EAA3DA93CA83BC312FA8840296B
:10034100E47FFE7EFBFDFCAB3EAA3DA93CA83B122F
:10035100FA885015E53EFFE53D5401FEE4FDFCFB46
:10036100FAF9F8C312FA8860057518058033AF3EB3
:10037100AE3DAD3CAC3B8F0F8E0E8D0D8C0C7518C8
:100381000385110A85120BE4F511F512AF0FAE0EBC
:10039100120006E4F50AF50BE54960051203DD8F4D
:0803A100497F017E0002000EFD
:10008E00E549600675180402015285113CE51054CD
:10009E000FF53B85120A85130BE4F512F513D3E524
:1000AE003C9408E53B94004006751807020152E4A3
:1000BE00FF7E04FDFCAB0FAA0EA90DA80CC312FA0D
:1000CE00884027E53C24FCFFE53B34FFFEEF250F7F
:1000DE00FFEE350EFEE4350DFDE4350CFCE47BFD44
:1000EE007AFBF9F8C312FA8850057518058055D3B6
:1000FE00E53C9408E53B94004011E53C24F8FFE50F
:10010E003B34FFFE7D087C0012FAC3753D00753E40
:10011E0004C3E53E953CE53D953B50207410253ECD
:10012E00F8E6FDAF0FAE0E12FAEA050FE50F7002FC
:10013E00050E053EE53E7002053D80D5E4F50AF557
:0B014E000B7518037F017E0002000EFD
:1001FC0085113E85123D85133C85143BE4FF7E043E
:10020C00FDFCAB3EAA3DA93CA83BC312FA88402A90
:10021C00E47FFF7EFBFDFCAB3EAA3DA93CA83BD393
:10022C0012FA885015E53EFFE53D5401FEE4FDFC55
:10023C00FBFAF9F8C312FA8860057518058043E4D7
:10024C00F508F509AE3DAF3E8E458F46F543F544B6
:10025C00854682854583E493FF12002E0546E546CC
:10026C00700205450544E54470020543C3E543941B
:10027C000240DD75180385084185094285421985C0
:09028C00411A7F037E0002000EFE
:1003A900E5496005751804802485110A85120BAD8D
:1003B900137FFF7EFB12FAEAAD147FFE7EFB12FA71
:1003C900EAE4F50AF50BF511F5127518037F017EBC
:0403D9000002000E10
:0DFAA9007518037F017E0012000E02001E82
:0AFACE007518067F017E0002000E8D
:10FBEF00000100FBFF0004004003090205010010A3
:06FABC00014900014A00AF
:100159001200161200261203DDBF01057549018040
:100169000375490212FAE1BF0203754903E549B46F
:10017900011112FA99BF02057549048006754905EE
:1001890012040012FAD8E4750FFD750EFBF50DF592
:100199000CE4FDFC7F08FE12FAC38F3AE53A54F0ED
:1001A900FFBF7003753A70E53AB4100512FA728010
:1001B900E0E54AB401DBE53A24D0601924F0601A7D
:1001C90024F0601B24F0601C24F0601D2450701E74
:1001D90012FA0080BC12032180B71203A980B2125F
:1001E900FAA980AD1201FC80A812008E80A312FA30
:0301F900CE809E17
:0100290022B4
:0BFAC3008E3F8F408C418D42AF10221F
:05000E008E478F48221F
:03000300020403F1
:03000B00020406E6
:03001300020409DB
:03001B0002040CD0
:0300230002040FC5
:03002B00020412BA
:03003300020415AF
:03003B00020418A4
:0300430002041B99
:03004B0002041E8E
:0300530002042183
:03005B0002042478
:030063000204276D
:03006B0002042A62
:0300730002042D57
:03007B000204304C
:0300830002043341
:03008B0002043636
:0300000002029564
:0C029500787FE4F6D8FD75814A0202DC97
:1002A100020159E493A3F8E493A34003F68001F219
:1002B10008DFF48029E493A3F85407240CC8C3335E
:1002C100C4540F4420C8834004F456800146F6DF2D
:1002D100E4800B010204081020408090FAB6E47E0D
:1002E100019360BCA3FF543F30E509541FFEE49322
:1002F100A360010ECF54C025E060A840B8E493A3E9
:10030100FAE493A3F8E493A3C8C582C8CAC583CA13
:10031100F0A3C8C582C8CAC583CADFE9DEE780BECB
:01FAC2000043
:10FA8800EB9FF5F0EA9E42F0E99D42F0E89C45F0D4
:01FA9800224B
:00000001FF
