:033D9100011B0112
:1010FA00E4F516AE36AF37E535B50708E534B5067B
:10110A0003D38001C3401BE516944050151211DC2D
:10111A00AE16051674402EF582E43403F583EFF01B
:10112A0080D1E5166015E51B60FCE4F51B7B017AAE
:0B113A00037940E516FD7C001204164E
:011145002287
:100FFE00D3E5319533E53095325015C37480953372
:10100E00FF74019532FEE5312FFFE5303EFE800B79
:10101E00C3E5319533FFE5309532FEC3EF9440EED4
:10102E009400402B7B017A0379007D401207168FC6
:10103E0009E4F50AE50AC3950950147400250AF56A
:0F104E0082E43403F583E0FF12125F050A80E5A8
:01105D002270
:03008B00020F9DC4
:100F9D00C0E0C0F0C083C082C0D075D000C000C01A
:0D0FAD0001C002C003C004C005C006C0079B
:100FBA00120C558F08E50830E103751B01E508306E
:100FCA00E203120FFEE5085438600612133B751B44
:090FDA0001E50830E70312097477
:100FE300D007D006D005D004D003D002D001D00062
:0B0FF300D0D0D082D083D0F0D0E0320C
:101300008519B7851AB7758F0175FF8075EF0622AD
:10131000903BFE74019322D3E5189400E517943AAC
:0113200022AA
:100CF20053D9BF121309E5B020E004D27F80241239
:100D0200131064C27004E493643D6004D27F8013C4
:100D1200E5EF20E109E5EF30E604D27F8005C27FEE
:100D2200121400E4F519F51A12133B75171475180D
:100D320000123D37900C6CE493FE740193FF900C0B
:100D42006EE493FC740193FD7BFF7A0C79A2900709
:100D5200B6120F6E7A0C79E49007B9120F6E900CEE
:100D6200D4E4939007BCF0900CD5E4939007BDF0C7
:100D7200900CD6E493FB7401939007BECBF0A3EBE7
:100D8200F07BFF7A0C7970123C0043A902120C2806
:100D920012105EEF120F770DB5000DBA010DBF02F2
:100DA2000DC4030DC9040DCE050DD3060DD80700E1
:100DB200000DDD12114680D81212B380D312122117
:100DC20080CE120DE780C912119180C41213678080
:100DD200BF12135480BA1210AD80B57F021212896D
:050DE20012132180AB9B
:101146007F021212897F0C121289123D8C8E0B8F30
:101156000CE50BFF121289AF0CE50C121289903BBD
:10116600FC12118A903BFD12118A903BFEE493FF1C
:10117600121289903BFFE493FF1212897F811212AB
:0411860089021321A6
:07118A00E493FF1212892219
:1012B30012105E8F0BE50BC3940A4007E50BD39422
:1012C3001D40047F01800BE50B25E0F51775180021
:0812D300E4FF1212891213213D
:0112DB0022F0
:10122100E5196004E51A70047F04802BC3E5179467
:1012310014400512131740047F01801BC2AF8518AB
:1012410082851783758F038519B7851AB71213091C
:0D125100E4F0F58FD2AFFF121289121321C5
:01125E00226D
:100DE70012105E8F0FE5196004E51A70047F048006
:100DF7003D121310F47003E493F460047F03802E14
:100E0700C3E5179414400512131740047F01801E91
:100E170085170D85180EE50FB4010BE4250EF50EA9
:100E27007401350DF50DE50F54FE60087F011212B0
:100E370089021321E4FF121289121321E4F50BF53D
:100E47000C12105EC2AF121300050EE50EAC0D704A
:100E570002050D14F5828C83EFF0E4F58FD2AF0510
:100E67000CE50C7002050BC3E50B940140D3E4FFBE
:0E0E7700121289121321E50FB401031211911A
:010E8500224A
:10119100851714851815E4F512F513F510F5118569
:1011A1001582851483E493FDAF13AE121212DC8E07
:1011B100128F130515E515700205140511E511705F
:1011C100020510C3E510940240D5E512FF12128901
:0A11D100AF13E51312128912132167
:0111DB0022F1
:1012DC00ED6207E4FDEF30E00FEEC313FEEF13FFFA
:1012EC006307086306848007EEC313FEEF13FF0D3C
:0312FC00BD08E248
:0112FF0022CC
:1013540012105E8F1912105E8F1AE4FF1212891296
:0313640013212230
:1010AD00750B3B750CFE12105E8F0D12105E8F0EC0
:1010BD00121310F47003E493F460047F038027C2CD
:1010CD00AF7F02121300740C2FF8E6FE050CE50C31
:1010DD00AC0B7002050B14F5828C83EEF0E4F58FEA
:0C10ED00DFE1D2AFE4FF121289121321E0
:0110F90022D4
:0913670075EF12120B9C020C64DC
:10133B0075320175337F75300175317F75360175E7
:09134B00377F75340175357F22EE
:10125F00E533B47F0BE532B401067C007D008009D5
:10126F00E5332401FDE43532FC8C328D3374802D4F
:0A127F00F58274013CF583EFF022C4
:10128900E537B47F0BE536B401067C007D008009A3
:10129900E5372401FDE43536FC8C368D3774002D95
:0A12A900F58274003CF583EFF0229B
:10132100AE36AF37E535B50708E534B50603D380EA
:0A13310001C340051210FA80E72204
:10105E00D20030001CE53165337004E53065326036
:10106E00F4E53165337004E530653260E5C2008029
:10107E00E1E531B47F0BE530B401067E007F0080E0
:10108E0009E5312401FFE43530FE8E308F31AE306C
:0E109E00AF3174802FF58274013EF583E0FFC0
:0110AC002221
:1011DC00AE36AF37E535B50708E534B50603D38031
:1011EC0001C3402EE535B47F0BE534B401067E0017
:1011FC007F008009E5352401FFE43534FE8E348F01
:10120C0035AE34AF3574002FF58274003EF583E0B3
:05121C00FF227F00220B
:100C6C0010C4EA610E03530049004C0041004200DD
:100C7C005300000000000000000000000000000015
:100C8C000000000000000000000000000000000058
:100C9C00000000000000100355005300420020002B
:100CAC00410050004900000000000000000000005E
:100CBC000000000000000000000000000000000028
:100CCC0000000000000000000F8001000C03410038
:100CDC0052003500570032000E034100520035001F
:060CEC00570032007E00FB
:03000300021403E1
:03000B00021406D6
:03001300021409CB
:03001B0002140CC0
:0300230002140FB5
:03002B00021412AA
:030033000214159F
:03003B0002141894
:03004B0002141E7E
:0300530002142173
:03005B0002142468
:030063000214275D
:03006B0002142A52
:0300730002142D47
:03007B000214303C
:08008300207F03021433018BFE
:03000000020E8667
:0C0E8600787FE4F6D8FD758137020ECDB0
:1009B6001201100100000040C410000000000102F6
:1009C60003010902200001010080FA090400000267
:1009D600FF000000070502024000000705820240F2
:0A09E60000000403090401000000F2
:103C00009007AFEEF0A3EFF09007B3EBF0A3EAF06C
:103C1000A3E9F0E49007A8F09007A8E0FF9009B6A8
:103C200093FE74402FF582E43407F583EEF090079D
:103C3000A8E004F0E0B412E0E49007A8F09007A830
:103C4000E0FF9009C893FE74522FF582E43407F523
:103C500083EEF09007A8E004F0E0B420E09007AF16
:103C6000E0FAA3E0900748F0EAA3F0EDA3F0ECA39C
:103C7000F090077274FFF0A37409F0A374E8F09059
:103C800007B3E0F9A3E0FAA3E0900775C9F0A3EA4F
:103C9000F0A3E9F09007B6E0F9A3E0FAA3E09007FB
:103CA00078C9F0A3EAF0A3E9F09007B9E0F9A3E03E
:103CB000FAA3E090077BC9F0A3EAF0A3E9F090072C
:103CC000BCE0FFC394FA500590075AEFF09007BD8F
:103CD000E0900759F09007BEE0FEA3E090074CF09B
:103CE000EEA3F0E59620E7FB759601759708E5963B
:103CF00020E7FB75960775970FE59620E7FB75960D
:103D00000975970EE59620E7FB75960B7597077575
:103D1000D7E0123D80E4900792F0900791F0900771
:103D200093F0900786F043E602D2AFE59620E7FBDA
:073D30007596017597012251
:100B4E009007867402F0E59620E7FB75960175977F
:100B5E0001E490078EF0A37403F0A3F0E4900792E3
:070B6E00F090079104F02252
:10008E00E59620E7FB75960EE4F597E59620E7FBDF
:10009E00759691E59620E7FB90079CE597F0E0FFBB
:1000AE0030E210E59620E7FB759611E4F597900780
:1000BE008EF022EF30E410E59620E7FB7596117571
:1000CE009780E490078EF090078EE060030201C3E4
:1000DE0090079CE020E0030201C37596204396C072
:1000EE00E49007A8F0E59620E7FB9007A8E0247EB1
:1000FE00F582E43407F583E597F09007A8E004F065
:10010E00E0B407E1E59620E7FBE4F5969007A8E05A
:10011E00247EF582E43407F583E597F0900781E0BD
:10012E00FE900780E07C002400FFEC3E900794F0E8
:10013E00A3EFF0900785E0FE900784E02400FFEC2B
:10014E003E900796F0A3EFF090077FE004603B141B
:10015E00B40C00505D90016AF828287302018E02DB
:10016E00019302019802019D0201C00201A2020147
:10017E00A70201C00201AC0201B10201B60201BB2D
:10018E001209018030120A4A802B120606802612AE
:10019E000AA98021120BEB801C1208468017120B45
:1001AE000780121209F0800D120B758008120C4197
:1001BE008003120C0B90078EE0640160030202C4F0
:1001CE0090079C7402F0C390078DE0944090078CCA
:1001DE00E094004061E59620E7FB759620E49007D9
:1001EE00A8F09007A8E0FFC394405022900787E044
:1001FE00FBA3E0FAA3E0F98F82758300120F2BF5B3
:10020E0097E59620E7FB9007A8E004F080D49007CE
:10021E0088E475F040120F5890078DE024C0F090DE
:10022E00078CE034FFF090078BE02440F090078AB3
:10023E00E03400F08052E59620E7FB759620E490BE
:10024E0007A8F09007A8E0FFD390078DE09F9007D6
:10025E008CE094004026900787E0FBA3E0FAA3E031
:10026E00F99007A8E0F582758300120F2BF597E53C
:10027E009620E7FB9007A8E004F080C790079CE06B
:10028E004408F0E490078EF0900796E0FEA3E0FF9E
:10029E0090078AE0B50611A3E0B5070C90079CE025
:1002AE004408F0E490078EF0E59620E7FB75961172
:0702BE0090079CE0F5972278
:100C0B00E59620E7FB75960EE4F597E59620E7FB56
:0D0C1B0075961175972090078E7404F022D5
:1009010090077EE0247F600714600624027048800F
:100911002D90078FE0B40309900782E0B4020280B2
:100921000E900790E0B40316900782E0B4820F9016
:10093100078774FFF0A37409F0A374EC800D90078E
:100941008774FFF0A37409F0A374EEF090078CE4B0
:10095100F0A37402F08003120C0B90078EE0640484
:100961006010120C4190078E7401F0E490078AF038
:03097100A3F022CE
:100A4A00900780E07048900782E0FFB4021DE596A7
:100A5A0020E7FB75960E759702E59620E7FB7596DB
:100A6A0014759780E490078FF08026EFB4821DE515
:100A7A009620E7FB75960E759702E59620E7FB75BB
:100A8A009611759740E4900790F080058000120C4B
:0F0A9A000BE59620E7FB75960EE4F597020C41ED
:10060600900794E0B4373CA3E0B40B3790078EE034
:1006160064046010120C4190078E7401F0E4900798
:100626008AF0A3F090079B7480F09007877401F01E
:10063600A37407F0A3749BF090078CE4F0A304F076
:10064600020708900795E020E0030206DF90079373
:10065600E030E00854FEF04402F08007900793E093
:1006660054FDF0E59620E7FB75960E759702E59624
:1006760020E7FB759614759710E59620E7FB7596AF
:1006860011759708E59620E7FB759694E59620E7A1
:10069600FB90079BE597F0E020E4E9E59620E7FB71
:1006A600759614759710E59620E7FB759691E59675
:1006B60020E7FB90079BE597F0E020E3E9E596202D
:1006C600E7FB7596117597089007917408F09007E7
:1006D60093E0FF30E1034401F0900794E0FCA3E0CF
:1006E600FD30E10D9007867406F0900791E0441006
:1006F600F0ED30E20D9007867404F0900791E04427
:1007060020F0E59620E7FB75960EE4F597020C417E
:100AA900900780E07047900782E0FFB4021BE5964B
:100AB90020E7FB75960E759702E59620E7FB75967C
:100AC9001475972090078F801DEFB4821EE596203C
:100AD900E7FB75960E759702E59620E7FB7596116B
:100AE9007597109007907403F080058000120C0B25
:0E0AF900E59620E7FB75960EE4F597020C419A
:100BEB00E59620E7FBE4F596900780E0FFF597EF9D
:100BFB0090078660057403F080037402F0020C41C9
:10084600900781E024FE601B14603B2402707290C6
:1008560007877401F0A37407F0A37440F090074073
:10086600E080539007877401F0A37407F0A37452D5
:10087600F0900755E0FE900754E07C002400FFEC62
:100886003E90078C8035900780E0FFD394034002AA
:10089600802FEF75F003A42472F582E43407F58304
:1008A600E0FBA3E0FAA3E0F9900787EBF0A3EAF0F8
:1008B600A3E9F0120F12FF90078CE4F0A3EFF0808B
:1008C60003120C0B90078CE0FEA3E0FF900796E066
:1008D600FCA3E0FDC39FEC9E500890078CECF0A3B0
:1008E600EDF090078EE064046010120C4190078EC4
:0B08F6007401F0E490078AF0A3F022E8
:100B0700900786E0FFB40414A374FFF0A37409F000
:100B1700A374ECF090078CE4F0A304F0EFB4031691
:100B270090078774FFF0A37409F0A374EEF09007A1
:100B37008CE4F0A304F0120C4190078E7401F0E4EA
:070B470090078AF0A3F022E1
:1009F000900780E0D394004042900791E04440F09B
:100A00009007867404F0E490078FF0A3F0E5962039
:100A1000E7FB75960E759702E59620E7FB75961233
:100A2000759784E59620E7FB759615759780E59692
:100A300020E7FB75960EE4F597800C90078674030B
:0A0A4000F090078FF0A3F0020C41C4
:100B750090078774FFF0A37409F0A374EEF0900753
:100B85008CE4F0A304F0120C4190078E7401F0E49C
:070B950090078AF0A3F02293
:100C410090078EE06404600BE59620E7FB75961132
:040C51007597402231
:030043000202C5F1
:1002C500C0E0C0F0C083C082C0D075D000C000C0FF
:1002D50001C002C003C004C005C006C00790079D49
:1002E500E596F0E59620E7FB75968EE59620E7FB0B
:1002F50090079EE597F0E59620E7FB759686E596CF
:1003050020E7FB900798E597F0E030E30BE59620B2
:10031500E7FB75960B759707900798E030E2031297
:100325000B4E900798E030E014900786E0FF6404D8
:100335006004EFB40607900791E04480F0E596204D
:10034500E7FB759682E59620E7FB900798E597F021
:10035500E030E00312008E900798E030E22AE5963F
:1003650020E7FB75960E759702E59620E7FB7596D7
:1003750091E59620E7FB900799E597F0E054037027
:1003850007900791E04402F0E59620E7FB75968417
:10039500E59620E7FB900798E597F0E030E229E540
:1003A5009620E7FB75960E759702E59620E7FB7597
:1003B5009694E59620E7FB900799E597F0E030E005
:1003C50007900791E04404F0E59620E7FB75960E4B
:1003D50090079EE0F597E59620E7FB90079DE5964B
:1003E500F0E59620E7FB900793E030E00990079150
:1003F500E06003120BC9D007D006D005D004D003A6
:10040500D002D001D000D0D0D082D083D0F0D0E0BF
:0104150032B4
:03000600DFFE22F8
:103D3700E5B964E0603F53A90FC0A8C2AFC083C014
:103D4700A943B280E5A95407D394014003E4F5A938
:103D5700E4F5B943B980FF1200067F6412000643F9
:103D6700B9C0E5B930E5FBD083E583B4020343A9C5
:093D770002D083D0A853A90F2249
:10097400E5A954029007A8F053D7BF75A910E4F570
:10098400B943C9100000000000000000000000008E
:10099400000000000000000000000000000043B25E
:1009A4008043B2200053C9EFE042A9123D3743D738
:0209B4004022DF
:100B9C009007A7E5A8F0C2AFC2AF53E6FDE4F5D7C6
:100BAC00E59620E7FB759601759708E5A920E10607
:0D0BBC0043A910E4F5B99007A7E0F5A822C1
:0F0C5500900791E0FF9007A7F0E4900791F0223D
:053D8C007E037F6022B0
:100716009007A8EDF09007ABEBF0A3EAF0A3E9F0A1
:10072600900786E0B40606EDD3944040037F00228E
:10073600E59620E7FB75960E759702E59620E7FB92
:10074600759694E59620E7FB90079AE597F0E020EA
:10075600E003020843E59620E7FB759696E59620AA
:10076600E7FB900792E597F0E0FFEDC39F5006AEDA
:1007760005AF068000900792EFF053E6FDE5962060
:10078600E7FB7596E2900792E07003020827900750
:10079600ABE0FF7020A3A3E090079FF0E59620E76B
:1007A600FB90079FE0F8A697E004F09007A8E014F6
:1007B600F070E9806CEF20E73C9007ABA3E0FAA36A
:1007C600E0FF9007A1EAF0A3EFF0E59620E7FB90A3
:1007D60007A1E0FEA3E0F5828E83E597F09007A2DD
:1007E600E004F070069007A1E004F09007A8E0147A
:1007F600F070D7802C9007ABE064FE7021A3A3E0D5
:100806009007A5F0E59620E7FB9007A5E0F8E597A9
:10081600F2E004F09007A8E014F070E880037F008F
:1008260022E59620E7FBE4F596E59620E7FB75962C
:1008360014E4F59743E602900792E0FF227F002238
:10041600E49007A7F09007A9F0A3F09007ABEBF0E4
:10042600A3EAF0A3E9F0900786E0B4060DED4C6070
:1004360009D3ED9400EC94104004E4FEFF2253E649
:10044600FD9007A7E030E0030205FAE59620E7FBFA
:1004560075960E759702E59620E7FB759691E596DB
:1004660020E7FB9007A7E597F0E030E020E596202F
:10047600E7FB75960EE4F597E59620E7FB759691F2
:10048600E59620E7FB9007A7E597F080B4D3ED94B7
:1004960040EC94009007A840057440F08002EDF00F
:1004A600E59620E7FB7596229007A8E07003020503
:1004B600AA9007ABE0702DA3A3E0F99007A9A3E0EB
:1004C600FFE92FF990079FE9F0E59620E7FB9007F3
:1004D6009FE0F8E6F597E004F09007A8E014F070C6
:1004E600E80205AA9007ABE020E747A3E0FAA3E0FD
:1004F600F99007A9E0FEA3E0FFE92FF9EA3EAF0174
:100506009007A1F0A3EFF0E59620E7FB9007A1E0A6
:10051600FEA3E0F5828E83E0F5979007A2E004F053
:1005260070069007A1E004F09007A8E014F070D7D9
:1005360080729007ABE064FE7021A3A3E09007A54C
:10054600F0E59620E7FB9007A5E0F8E597F2E004D2
:10055600F09007A8E014F070E880499007ABA3E09C
:10056600FAA3E0F99007A9E0FEA3E0FFE92FF9EA74
:100576003EAF019007A3F0A3EFF0E59620E7FB90CE
:1005860007A3E0FEA3E0F5828E83E493F597900738
:10059600A4E004F070069007A3E004F09007A8E03A
:1005A60014F070D6C3ED9440EC94009007AAE04096
:1005B6001F2440F09007A9E03400F074C02DFD74AC
:1005C600FF3CFCE49007A7F09007A87440F0801663
:1005D6002DF09007A9E03CF09007A77401F0900772
:1005E600A8EDF0E4FCFDE59620E7FB7596117597FE
:1005F6000102044743E6029007A9E0FEA3E0FF22BA
:100C2800900793E04401F0900791E0600BE596206F
:090C3800E7FB75960B75970F227E
:080C6400900793E054FEF0221A
:0C3D8000E59620E7FB75960F75978922E9
:100BC900D007D007D007D006D005D004D003D00273
:100BD900D001D000D0D0D082D083D0F0D0E00200B4
:020BE900832265
:100E9200020CF2E493A3F8E493A34003F68001F278
:100EA20008DFF48029E493A3F85407240CC8C33361
:100EB200C4540F4420C8834004F456800146F6DF30
:100EC200E4800B0102040810204080903D91E47EF2
:100ED200019360BCA3FF543F30E509541FFEE49325
:100EE200A360010ECF54C025E060A840B8E493A3EC
:100EF200FAE493A3F8E493A3C8C582C8CAC583CA17
:100F0200F0A3C8C582C8CAC583CADFE9DEE780BECE
:013D9400002E
:100F1200BB010689828A83E0225002E722BBFE02DD
:090F2200E32289828A83E4932210
:100F2B00BB010CE58229F582E5833AF583E022507B
:100F3B0006E92582F8E622BBFE06E92582F8E222C5
:0D0F4B00E58229F582E5833AF583E49322DF
:100F5800C5F0F8A3E028F0C5F0F8E5821582700224
:060F68001583E038F022C1
:090F6E00EBF0A3EAF0A3E9F02284
:100F7700D083D082F8E4937012740193700DA3A309
:100F870093F8740193F5828883E47374029368601D
:060F9700EFA3A3A380DF1D
:00000001FF
