:037F8F00011B01D2
:10110200E4F516AE36AF37E535B50708E534B50672
:1011120003D38001C3401BE516944050151211E41D
:10112200AE16051674402EF582E43403F583EFF013
:1011320080D1E5166015E51B60FCE4F51B7B017AA6
:0B114200037940E516FD7C0012041E3E
:01114D00227F
:10100600D3E5319533E53095325015C37480953369
:10101600FF74019532FEE5312FFFE5303EFE800B71
:10102600C3E5319533FFE5309532FEC3EF9440EECC
:101036009400402B7B017A0379007D4012071E8FB6
:1010460009E4F50AE50AC3950950147400250AF562
:0F10560082E43403F583E0FF121267050A80E598
:011065002268
:03009300020FA5B4
:100FA500C0E0C0F0C083C082C0D075D000C000C012
:0D0FB50001C002C003C004C005C006C00793
:100FC200120C5D8F08E50830E103751B01E508305E
:100FD200E203121006E50854386006121343751B2B
:090FE20001E50830E70312097C67
:100FEB00D007D006D005D004D003D002D001D0005A
:0B0FFB00D0D0D082D083D0F0D0E03204
:101308008519B7851AB7758F0175FF8075EF0622A5
:10131800907DFE74019322D3E5189400E517947C20
:0113280022A2
:100CFA0053D9BF121311E5B020E004D27F80241229
:100D0A00131864C27004E493643D6004D27F8013B4
:100D1A00E5EF20E109E5EF30E604D27F8005C27FE6
:100D2A00121400E4F519F51A1213437517147518FD
:100D3A0000127F37900C74E493FE740193FF900CB9
:100D4A0076E493FC740193FD7BFF7A0C79AA9007F1
:100D5A00B6120F767A0C79EC9007B9120F76900CCE
:100D6A00DCE4939007BCF0900CDDE4939007BDF0AF
:100D7A00900CDEE493FB7401939007BECBF0A3EBD7
:100D8A00F07BFF7A0C7978127E0043A902120C30AC
:100D9A00121066EF120F7F0DBD000DC2010DC702C2
:100DAA000DCC030DD1040DD6050DDB060DE00700B1
:100DBA00000DE512114E80D81212BB80D3121229EF
:100DCA0080CE120DEF80C912119980C412136F8060
:100DDA00BF12135C80BA1210B580B57F021212914D
:050DEA0012132980AB8B
:10114E007F021212917F0C121291127F8A8E0B8FD8
:10115E000CE50BFF121291AF0CE50C121291907D63
:10116E00FC121192907DFD121192907DFEE493FF80
:10117E00121291907DFFE493FF1212917F8312124F
:04118E00910213298E
:07119200E493FF1212912209
:1012BB001210668F0BE50BC3940A4007E50BD39412
:1012CB003E40047F01800BE50B25E0F517751800F8
:0812DB00E4FF12129112132925
:0112E30022E8
:10122900E5196004E51A70047F04802BC3E517945F
:1012390014400512131F40047F01801BC2AF85189B
:1012490082851783758F038519B7851AB71213110C
:0D125900E4F0F58FD2AFFF121291121329AD
:011266002265
:100DEF001210668F0FE5196004E51A70047F0480F6
:100DFF003D121318F47003E493F460047F03802E04
:100E0F00C3E5179414400512131F40047F01801E81
:100E1F0085170D85180EE50FB4010BE4250EF50EA1
:100E2F007401350DF50DE50F54FE60087F011212A8
:100E3F0091021329E4FF121291121329E4F50BF515
:100E4F000C121066C2AF121308050EE50EAC0D7032
:100E5F0002050D14F5828C83EFF0E4F58FD2AF0508
:100E6F000CE50C7002050BC3E50B940140D3E4FFB6
:0E0E7F00121291121329E50FB40103121199FA
:010E8D002242
:10119900851714851815E4F512F513F510F5118561
:1011A9001582851483E493FDAF13AE121212E48EF7
:1011B900128F130515E515700205140511E5117057
:1011C900020510C3E510940240D5E512FF121291F1
:0A11D900AF13E5131212911213294F
:0111E30022E9
:1012E400ED6207E4FDEF30E00FEEC313FEEF13FFF2
:1012F4006307086306848007EEC313FEEF13FF0D34
:03130400BD08E23F
:0113070022C3
:10135C001210668F191210668F1AE4FF1212911276
:03136C0013292220
:1010B500750B7D750CFE1210668F0D1210668F0E66
:1010C500121318F47003E493F460047F038027C2BD
:1010D500AF7F02121308740C2FF8E6FE050CE50C21
:1010E500AC0B7002050B14F5828C83EEF0E4F58FE2
:0C10F500DFE1D2AFE4FF121291121329C8
:0111010022CB
:09136F0075EF12120BA4020C6CC4
:1013430075320175337F75300175317F75360175DF
:09135300377F75340175357F22E6
:10126700E533B47F0BE532B401067C007D008009CD
:10127700E5332401FDE43532FC8C328D3374802D47
:0A128700F58274013CF583EFF022BC
:10129100E537B47F0BE536B401067C007D0080099B
:1012A100E5372401FDE43536FC8C368D3774002D8D
:0A12B100F58274003CF583EFF02293
:10132900AE36AF37E535B50708E534B50603D380E2
:0A13390001C3400512110280E722F3
:10106600D20030001CE53165337004E5306532602E
:10107600F4E53165337004E530653260E5C2008021
:10108600E1E531B47F0BE530B401067E007F0080D8
:1010960009E5312401FFE43530FE8E308F31AE3064
:0E10A600AF3174802FF58274013EF583E0FFB8
:0110B4002219
:1011E400AE36AF37E535B50708E534B50603D38029
:1011F40001C3402EE535B47F0BE534B401067E000F
:101204007F008009E5352401FFE43534FE8E348FF8
:1012140035AE34AF3574002FF58274003EF583E0AB
:05122400FF227F002203
:100C740010C4EA610E03530049004C0041004200D5
:100C8400530000000000000000000000000000000D
:100C94000000000000000000000000000000000050
:100CA4000000000000001003550053004200200023
:100CB4004100500049000000000000000000000056
:100CC4000000000000000000000000000000000020
:100CD40000000000000000000F8001000C03410030
:100CE40052003500570032000E0341005200350017
:060CF400570032007E00F3
:03000300021403E1
:03000B00021406D6
:03001300021409CB
:03001B0002140CC0
:0300230002140FB5
:03002B00021412AA
:030033000214159F
:03003B0002141894
:03004B0002141E7E
:0300530002142173
:03005B0002142468
:030063000214275D
:03006B0002142A52
:0300730002142D47
:03007B000214303C
:0300830002143331
:08008B00207F030214360193EB
:03000000020E8E5F
:0C0E8E00787FE4F6D8FD758137020ED5A0
:1009BE001201100100000040C410000000000102EE
:1009CE0003010902200001010080FA09040000025F
:1009DE00FF000000070502024000000705820240EA
:0A09EE0000000403090401000000EA
:107E00009007AFEEF0A3EFF09007B3EBF0A3EAF02A
:107E1000A3E9F0E49007A8F09007A8E0FF9009BE5E
:107E200093FE74402FF582E43407F583EEF090075B
:107E3000A8E004F0E0B412E0E49007A8F09007A8EE
:107E4000E0FF9009D093FE74522FF582E43407F5D9
:107E500083EEF09007A8E004F0E0B420E09007AFD4
:107E6000E0FAA3E0900748F0EAA3F0EDA3F0ECA35A
:107E7000F090077274FFF0A37409F0A374F0F0900F
:107E800007B3E0F9A3E0FAA3E0900775C9F0A3EA0D
:107E9000F0A3E9F09007B6E0F9A3E0FAA3E09007B9
:107EA00078C9F0A3EAF0A3E9F09007B9E0F9A3E0FC
:107EB000FAA3E090077BC9F0A3EAF0A3E9F09007EA
:107EC000BCE0FFC394FA500590075AEFF09007BD4D
:107ED000E0900759F09007BEE0FEA3E090074CF059
:107EE000EEA3F0E59620E7FB759601759708E596F9
:107EF00020E7FB75960775970FE59620E7FB7596CB
:107F00000975970EE59620E7FB75960B7597077533
:107F1000D7E0127F7EE4900792F0900791F09007EF
:107F200093F0900786F043E602D2AFE59620E7FB98
:077F3000759601759701220F
:100B56009007867402F0E59620E7FB759601759777
:100B660001E490078EF0A37403F0A3F0E4900792DB
:070B7600F090079104F0224A
:10009600E59620E7FB75960EE4F597E59620E7FBD7
:1000A600759691E59620E7FB90079CE597F0E0FFB3
:1000B60030E210E59620E7FB759611E4F597900778
:1000C6008EF022EF30E410E59620E7FB7596117569
:1000D6009780E490078EF090078EE060030201CBD4
:1000E60090079CE020E0030201CB7596204396C062
:1000F600E49007A8F0E59620E7FB9007A8E0247EA9
:10010600F582E43407F583E597F09007A8E004F05C
:10011600E0B407E1E59620E7FBE4F5969007A8E052
:10012600247EF582E43407F583E597F0900781E0B5
:10013600FE900780E07C002400FFEC3E900794F0E0
:10014600A3EFF0900785E0FE900784E02400FFEC23
:100156003E900796F0A3EFF090077FE004603B1413
:10016600B40C00505D900172F828287302019602C3
:10017600019B0201A00201A50201C80201AA020117
:10018600AF0201C80201B40201B90201BE0201C3F5
:100196001209098030120A52802B12060E8026128E
:1001A6000AB18021120BF3801C12084E8017120B25
:1001B6000F80121209F8800D120B7D8008120C496F
:1001C6008003120C1390078EE0640160030202CCD8
:1001D60090079C7402F0C390078DE0944090078CC2
:1001E600E094004061E59620E7FB759620E49007D1
:1001F600A8F09007A8E0FFC394405022900787E03C
:10020600FBA3E0FAA3E0F98F82758300120F33F5A2
:1002160097E59620E7FB9007A8E004F080D49007C6
:1002260088E475F040120F6090078DE024C0F090CE
:10023600078CE034FFF090078BE02440F090078AAB
:10024600E03400F08052E59620E7FB759620E490B6
:1002560007A8F09007A8E0FFD390078DE09F9007CE
:100266008CE094004026900787E0FBA3E0FAA3E029
:10027600F99007A8E0F582758300120F33F597E52C
:100286009620E7FB9007A8E004F080C790079CE063
:100296004408F0E490078EF0900796E0FEA3E0FF96
:1002A60090078AE0B50611A3E0B5070C90079CE01D
:1002B6004408F0E490078EF0E59620E7FB7596116A
:0702C60090079CE0F5972270
:100C1300E59620E7FB75960EE4F597E59620E7FB4E
:0D0C230075961175972090078E7404F022CD
:1009090090077EE0247F6007146006240270488007
:100919002D90078FE0B40309900782E0B4020280AA
:100929000E900790E0B40316900782E0B4820F900E
:10093900078774FFF0A37409F0A374F4800D90077E
:100949008774FFF0A37409F0A374F6F090078CE4A0
:10095900F0A37402F08003120C1390078EE0640474
:100969006010120C4990078E7401F0E490078AF028
:03097900A3F022C6
:100A5200900780E07048900782E0FFB4021DE5969F
:100A620020E7FB75960E759702E59620E7FB7596D3
:100A720014759780E490078FF08026EFB4821DE50D
:100A82009620E7FB75960E759702E59620E7FB75B3
:100A92009611759740E4900790F080058000120C43
:0F0AA20013E59620E7FB75960EE4F597020C49D5
:10060E00900794E0B4373CA3E0B40B3790078EE02C
:10061E0064046010120C4990078E7401F0E4900788
:10062E008AF0A3F090079B7480F09007877401F016
:10063E00A37407F0A3749BF090078CE4F0A304F06E
:10064E00020710900795E020E0030206E79007935B
:10065E00E030E00854FEF04402F08007900793E08B
:10066E0054FDF0E59620E7FB75960E759702E5961C
:10067E0020E7FB759614759710E59620E7FB7596A7
:10068E0011759708E59620E7FB759694E59620E799
:10069E00FB90079BE597F0E020E4E9E59620E7FB69
:1006AE00759614759710E59620E7FB759691E5966D
:1006BE0020E7FB90079BE597F0E020E3E9E5962025
:1006CE00E7FB7596117597089007917408F09007DF
:1006DE0093E0FF30E1034401F0900794E0FCA3E0C7
:1006EE00FD30E10D9007867406F0900791E04410FE
:1006FE00F0ED30E20D9007867404F0900791E0441F
:10070E0020F0E59620E7FB75960EE4F597020C496E
:100AB100900780E07047900782E0FFB4021BE59643
:100AC10020E7FB75960E759702E59620E7FB759674
:100AD1001475972090078F801DEFB4821EE5962034
:100AE100E7FB75960E759702E59620E7FB75961163
:100AF1007597109007907403F080058000120C1315
:0E0B0100E59620E7FB75960EE4F597020C4989
:100BF300E59620E7FBE4F596900780E0FFF597EF95
:100C030090078660057403F080037402F0020C49B8
:10084E00900781E024FE601B14603B2402707290BE
:10085E0007877401F0A37407F0A37440F09007406B
:10086E00E080539007877401F0A37407F0A37452CD
:10087E00F0900755E0FE900754E07C002400FFEC5A
:10088E003E90078C8035900780E0FFD394034002A2
:10089E00802FEF75F003A42472F582E43407F583FC
:1008AE00E0FBA3E0FAA3E0F9900787EBF0A3EAF0F0
:1008BE00A3E9F0120F1AFF90078CE4F0A3EFF0807B
:1008CE0003120C1390078CE0FEA3E0FF900796E056
:1008DE00FCA3E0FDC39FEC9E500890078CECF0A3A8
:1008EE00EDF090078EE064046010120C4990078EB4
:0B08FE007401F0E490078AF0A3F022E0
:100B0F00900786E0FFB40414A374FFF0A37409F0F8
:100B1F00A374F4F090078CE4F0A304F0EFB4031681
:100B2F0090078774FFF0A37409F0A374F6F0900791
:100B3F008CE4F0A304F0120C4990078E7401F0E4DA
:070B4F0090078AF0A3F022D9
:1009F800900780E0D394004042900791E04440F093
:100A08009007867404F0E490078FF0A3F0E5962031
:100A1800E7FB75960E759702E59620E7FB7596122B
:100A2800759784E59620E7FB759615759780E5968A
:100A380020E7FB75960EE4F597800C900786740303
:0A0A4800F090078FF0A3F0020C49B4
:100B7D0090078774FFF0A37409F0A374F6F0900743
:100B8D008CE4F0A304F0120C4990078E7401F0E48C
:070B9D0090078AF0A3F0228B
:100C490090078EE06404600BE59620E7FB7596112A
:040C59007597402229
:030043000202CDE9
:1002CD00C0E0C0F0C083C082C0D075D000C000C0F7
:1002DD0001C002C003C004C005C006C00790079D41
:1002ED00E596F0E59620E7FB75968EE59620E7FB03
:1002FD0090079EE597F0E59620E7FB759686E596C7
:10030D0020E7FB900798E597F0E030E30BE59620AA
:10031D00E7FB75960B759707900798E030E203128F
:10032D000B56900798E030E014900786E0FF6404C8
:10033D006004EFB40607900791E04480F0E5962045
:10034D00E7FB759682E59620E7FB900798E597F019
:10035D00E030E003120096900798E030E22AE5962F
:10036D0020E7FB75960E759702E59620E7FB7596CF
:10037D0091E59620E7FB900799E597F0E05403701F
:10038D0007900791E04402F0E59620E7FB7596840F
:10039D00E59620E7FB900798E597F0E030E229E538
:1003AD009620E7FB75960E759702E59620E7FB758F
:1003BD009694E59620E7FB900799E597F0E030E0FD
:1003CD0007900791E04404F0E59620E7FB75960E43
:1003DD0090079EE0F597E59620E7FB90079DE59643
:1003ED00F0E59620E7FB900793E030E00990079148
:1003FD00E06003120BD1D007D006D005D004D00396
:10040D00D002D001D000D0D0D082D083D0F0D0E0B7
:01041D0032AC
:107F3700E49007A8F0E5B964E0603853A90F90070B
:107F4700A7E5A9F043B280E5A95407D394014003FC
:107F5700E4F5A9E4F5B943B9809007A8E014F070F7
:107F6700F843B9C0E5B930E5FB9007A7E0B40203D1
:077F770043A90253A90F22E8
:10097C00E5A954029007A8F053D7BF75A910E4F568
:10098C00B943C91000000000000000000000000086
:10099C00000000000000000000000000000043B256
:1009AC008043B2200053C9EFE042A9127F3743D7EE
:0209BC004022D7
:100BA4009007A7E5A8F0C2AFC2AF53E6FDE4F5D7BE
:100BB400E59620E7FB759601759708E5A920E106FF
:0D0BC40043A910E4F5B99007A7E0F5A822B9
:0F0C5D00900791E0FF9007A7F0E4900791F02235
:057F8A007E037F602270
:10071E009007A8EDF09007ABEBF0A3EAF0A3E9F099
:10072E00900786E0B40606EDD3944040037F002286
:10073E00E59620E7FB75960E759702E59620E7FB8A
:10074E00759694E59620E7FB90079AE597F0E020E2
:10075E00E00302084BE59620E7FB759696E596209A
:10076E00E7FB900792E597F0E0FFEDC39F5006AED2
:10077E0005AF068000900792EFF053E6FDE5962058
:10078E00E7FB7596E2900792E0700302082F900740
:10079E00ABE0FF7020A3A3E090079FF0E59620E763
:1007AE00FB90079FE0F8A697E004F09007A8E014EE
:1007BE00F070E9806CEF20E73C9007ABA3E0FAA362
:1007CE00E0FF9007A1EAF0A3EFF0E59620E7FB909B
:1007DE0007A1E0FEA3E0F5828E83E597F09007A2D5
:1007EE00E004F070069007A1E004F09007A8E01472
:1007FE00F070D7802C9007ABE064FE7021A3A3E0CD
:10080E009007A5F0E59620E7FB9007A5E0F8E597A1
:10081E00F2E004F09007A8E014F070E880037F0087
:10082E0022E59620E7FBE4F596E59620E7FB759624
:10083E0014E4F59743E602900792E0FF227F002230
:10041E00E49007A7F09007A9F0A3F09007ABEBF0DC
:10042E00A3EAF0A3E9F0900786E0B4060DED4C6068
:10043E0009D3ED9400EC94104004E4FEFF2253E641
:10044E00FD9007A7E030E003020602E59620E7FBE9
:10045E0075960E759702E59620E7FB759691E596D3
:10046E0020E7FB9007A7E597F0E030E020E5962027
:10047E00E7FB75960EE4F597E59620E7FB759691EA
:10048E00E59620E7FB9007A7E597F080B4D3ED94AF
:10049E0040EC94009007A840057440F08002EDF007
:1004AE00E59620E7FB7596229007A8E070030205FB
:1004BE00B29007ABE0702DA3A3E0F99007A9A3E0DB
:1004CE00FFE92FF990079FE9F0E59620E7FB9007EB
:1004DE009FE0F8E6F597E004F09007A8E014F070BE
:1004EE00E80205B29007ABE020E747A3E0FAA3E0ED
:1004FE00F99007A9E0FEA3E0FFE92FF9EA3EAF016C
:10050E009007A1F0A3EFF0E59620E7FB9007A1E09E
:10051E00FEA3E0F5828E83E0F5979007A2E004F04B
:10052E0070069007A1E004F09007A8E014F070D7D1
:10053E0080729007ABE064FE7021A3A3E09007A544
:10054E00F0E59620E7FB9007A5E0F8E597F2E004CA
:10055E00F09007A8E014F070E880499007ABA3E094
:10056E00FAA3E0F99007A9E0FEA3E0FFE92FF9EA6C
:10057E003EAF019007A3F0A3EFF0E59620E7FB90C6
:10058E0007A3E0FEA3E0F5828E83E493F597900730
:10059E00A4E004F070069007A3E004F09007A8E032
:1005AE0014F070D6C3ED9440EC94009007AAE0408E
:1005BE001F2440F09007A9E03400F074C02DFD74A4
:1005CE00FF3CFCE49007A7F09007A87440F080165B
:1005DE002DF09007A9E03CF09007A77401F090076A
:1005EE00A8EDF0E4FCFDE59620E7FB7596117597F6
:1005FE000102044F43E6029007A9E0FEA3E0FF22AA
:100C3000900793E04401F0900791E0600BE5962067
:090C4000E7FB75960B75970F2276
:080C6C00900793E054FEF02212
:0C7F7E00E59620E7FB75960F75978922A9
:100BD100D007D007D007D006D005D004D003D0026B
:100BE100D001D000D0D0D082D083D0F0D0E00200AC
:020BF1008B2255
:100E9A00020CFAE493A3F8E493A34003F68001F268
:100EAA0008DFF48029E493A3F85407240CC8C33359
:100EBA00C4540F4420C8834004F456800146F6DF28
:100ECA00E4800B0102040810204080907F8FE47EAA
:100EDA00019360BCA3FF543F30E509541FFEE4931D
:100EEA00A360010ECF54C025E060A840B8E493A3E4
:100EFA00FAE493A3F8E493A3C8C582C8CAC583CA0F
:100F0A00F0A3C8C582C8CAC583CADFE9DEE780BEC6
:017F920000EE
:100F1A00BB010689828A83E0225002E722BBFE02D5
:090F2A00E32289828A83E4932208
:100F3300BB010CE58229F582E5833AF583E0225073
:100F430006E92582F8E622BBFE06E92582F8E222BD
:0D0F5300E58229F582E5833AF583E49322D7
:100F6000C5F0F8A3E028F0C5F0F8E582158270021C
:060F70001583E038F022B9
:090F7600EBF0A3EAF0A3E9F0227C
:100F7F00D083D082F8E4937012740193700DA3A301
:100F8F0093F8740193F5828883E473740293686015
:060F9F00EFA3A3A380DF15
:00000001FF
