:037F8F00011B01D2
:10114B00E4F516AE36AF37E535B50708E534B50629
:10115B0003D38001C3401BE5169440501512122D8A
:10116B00AE16051674402EF582E43403F583EFF0CA
:10117B0080D1E5166015E51B60FCE4F51B7B017A5D
:0B118B00037940E516FD7C00120436DD
:011196002236
:10104F00D3E5319533E53095325015C37480953320
:10105F00FF74019532FEE5312FFFE5303EFE800B28
:10106F00C3E5319533FFE5309532FEC3EF9440EE83
:10107F009400402B7B017A0379007D401207368F55
:10108F0009E4F50AE50AC3950950147400250AF519
:0F109F0082E43403F583E0FF1212B0050A80E506
:0110AE00221F
:0300AB00020FEE53
:100FEE00C0E0C0F0C083C082C0D075D000C000C0C9
:0D0FFE0001C002C003C004C005C006C0074A
:10100B00120CA68F08E50830E103751B01E50830CB
:10101B00E20312104FE5085438600612138C751B4F
:09102B0001E50830E70312099405
:10103400D007D006D005D004D003D002D001D00010
:0B104400D0D0D082D083D0F0D0E032BA
:101351008519B7851AB7758F0175FF8075EF06225C
:10136100907DFE74019322D3E5189400E517947CD7
:011371002259
:100D430053D9BF12135AE5B020E004D27F80241296
:100D5300136164C27004E493643D6004D27F801322
:100D6300E5EF20E109E5EF30E604D27F8005C27F9D
:100D7300121400E4F519F51A12138C75171475186B
:100D830000127F37900CBDE493FE740193FF900C27
:100D9300BFE493FC740193FD7BFF7A0C79F3900716
:100DA300B6120FBF7A0D79359007B9120FBF900DA8
:100DB30025E4939007BCF0900D26E4939007BDF0D3
:100DC300900D27E493FB7401939007BECBF0A3EB44
:100DD300F07BFF7A0C79C1127E0043A902120C79D1
:100DE3001210AFEF120FC80E06000E0B010E100209
:100DF3000E15030E1A040E1F050E24060E290700F6
:100E0300000E2E12119780D812130480D31212727F
:100E130080CE120E3880C91211E280C41213B8803A
:100E2300BF1213A580BA1210FE80B57F021212DA28
:050E330012137280ABF8
:101197007F021212DA7F0C1212DA127F8A8E0B8FFD
:1011A7000CE50BFF1212DAAF0CE50C1212DA907D88
:1011B700FC1211DB907DFD1211DB907DFEE493FFA5
:1011C7001212DA907DFFE493FF1212DA7F85121272
:0411D700DA021372B3
:0711DB00E493FF1212DA2277
:101304001210AF8F0BE50BC3940A4007E50BD3947F
:101314003E40047F01800BE50B25E0F517751800AE
:08132400E4FF1212DA12137249
:01132C00229E
:10127200E5196004E51A70047F04802BC3E5179416
:1012820014400512136840047F01801BC2AF851809
:1012920082851783758F038519B7851AB712135A7A
:0D12A200E4F0F58FD2AFFF1212DA121372D2
:0112AF00221C
:100E38001210AF8F0FE5196004E51A70047F048063
:100E48003D121361F47003E493F460047F03802E71
:100E5800C3E5179414400512136840047F01801EEF
:100E680085170D85180EE50FB4010BE4250EF50E58
:100E78007401350DF50DE50F54FE60087F0112125F
:100E8800DA021372E4FF1212DA121372E4F50BF5A8
:100E98000C1210AFC2AF121351050EE50EAC0D7057
:100EA80002050D14F5828C83EFF0E4F58FD2AF05BF
:100EB8000CE50C7002050BC3E50B940140D3E4FF6D
:0E0EC8001212DA121372E50FB401031211E2D6
:010ED60022F9
:1011E200851714851815E4F512F513F510F5118518
:1011F2001582851483E493FDAF13AE1212132D8E64
:10120200128F130515E515700205140511E511700D
:10121200020510C3E510940240D5E512FF1212DA5E
:0A122200AF13E5131212DA12137273
:01122C00229F
:10132D00ED6207E4FDEF30E00FEEC313FEEF13FFA8
:10133D006307086306848007EEC313FEEF13FF0DEA
:03134D00BD08E2F6
:01135000227A
:1013A5001210AF8F191210AF8F1AE4FF1212DA1252
:0313B5001372228E
:1010FE00750B7D750CFE1210AF8F0D1210AF8F0E8B
:10110E00121361F47003E493F460047F038027C22A
:10111E00AF7F02121351740C2FF8E6FE050CE50C8E
:10112E00AC0B7002050B14F5828C83EEF0E4F58F98
:0C113E00DFE1D2AFE4FF1212DA121372EC
:01114A002282
:0913B80075EF12120BED020CB5E9
:10138C0075320175337F75300175317F7536017596
:09139C00377F75340175357F229D
:1012B000E533B47F0BE532B401067C007D00800984
:1012C000E5332401FDE43532FC8C328D3374802DFE
:0A12D000F58274013CF583EFF02273
:1012DA00E537B47F0BE536B401067C007D00800952
:1012EA00E5372401FDE43536FC8C368D3774002D44
:0A12FA00F58274003CF583EFF0224A
:10137200AE36AF37E535B50708E534B50603D38099
:0A13820001C3400512114B80E72261
:1010AF00D20030001CE53165337004E530653260E5
:1010BF00F4E53165337004E530653260E5C20080D8
:1010CF00E1E531B47F0BE530B401067E007F00808F
:1010DF0009E5312401FFE43530FE8E308F31AE301B
:0E10EF00AF3174802FF58274013EF583E0FF6F
:0110FD0022D0
:10122D00AE36AF37E535B50708E534B50603D380DF
:10123D0001C3402EE535B47F0BE534B401067E00C5
:10124D007F008009E5352401FFE43534FE8E348FAF
:10125D0035AE34AF3574002FF58274003EF583E062
:05126D00FF227F0022BA
:100CBD0010C4EA610E03530049004C00410042008C
:100CCD0053000000000000000000000000000000C4
:100CDD000000000000000000000000000000000007
:100CED0000000000000010035500530042002000DA
:100CFD00410050004900000000000000000000000D
:100D0D0000000000000000000000000000000000D6
:100D1D0000000000000000000F8001000C034100E6
:100D2D0052003500570032000E03410052003500CD
:060D3D00570032007E00A9
:03000300021403E1
:03000B00021406D6
:03001300021409CB
:03001B0002140CC0
:0300230002140FB5
:03002B00021412AA
:030033000214159F
:03003B0002141894
:03004B0002141E7E
:0300530002142173
:03005B0002142468
:030063000214275D
:03006B0002142A52
:0300730002142D47
:03007B000214303C
:0300830002143331
:08008B00207F0302143601ABD3
:030093000214391B
:03009B0002143C10
:0300A30002143F05
:03000000020ED716
:0C0ED700787FE4F6D8FD758137020F1E0D
:100A07001201100100000040C410000000000102A4
:100A170003010902200001010080FA090400000215
:100A2700FF000000070502024000000705820240A0
:0A0A370000000403090401000000A0
:107E00009007AFEEF0A3EFF09007B3EBF0A3EAF02A
:107E1000A3E9F0E49007A8F09007A8E0FF900A0714
:107E200093FE74402FF582E43407F583EEF090075B
:107E3000A8E004F0E0B412E0E49007A8F09007A8EE
:107E4000E0FF900A1993FE74522FF582E43407F58F
:107E500083EEF09007A8E004F0E0B420E09007AFD4
:107E6000E0FAA3E0900748F0EAA3F0EDA3F0ECA35A
:107E7000F090077274FFF0A3740AF0A37439F090C5
:107E800007B3E0F9A3E0FAA3E0900775C9F0A3EA0D
:107E9000F0A3E9F09007B6E0F9A3E0FAA3E09007B9
:107EA00078C9F0A3EAF0A3E9F09007B9E0F9A3E0FC
:107EB000FAA3E090077BC9F0A3EAF0A3E9F09007EA
:107EC000BCE0FFC394FA500590075AEFF09007BD4D
:107ED000E0900759F09007BEE0FEA3E090074CF059
:107EE000EEA3F0E59620E7FB759601759708E596F9
:107EF00020E7FB75960775970FE59620E7FB7596CB
:107F00000975970EE59620E7FB75960B7597077533
:107F1000D7E0127F7EE4900792F0900791F09007EF
:107F200093F0900786F043E602D2AFE59620E7FB98
:077F3000759601759701220F
:100B9F009007867402F0E59620E7FB75960175972E
:100BAF0001E490078EF0A37403F0A3F0E490079292
:070BBF00F090079104F02201
:1000AE00E59620E7FB75960EE4F597E59620E7FBBF
:1000BE00759691E59620E7FB90079CE597F0E0FF9B
:1000CE0030E210E59620E7FB759611E4F597900760
:1000DE008EF022EF30E410E59620E7FB7596117551
:1000EE009780E490078EF090078EE060030201E3A4
:1000FE0090079CE020E0030201E37596204396C032
:10010E00E49007A8F0E59620E7FB9007A8E0247E90
:10011E00F582E43407F583E597F09007A8E004F044
:10012E00E0B407E1E59620E7FBE4F5969007A8E03A
:10013E00247EF582E43407F583E597F0900781E09D
:10014E00FE900780E07C002400FFEC3E900794F0C8
:10015E00A3EFF0900785E0FE900784E02400FFEC0B
:10016E003E900796F0A3EFF090077FE004603B14FB
:10017E00B40C00505D90018AF82828730201AE027B
:10018E0001B30201B80201BD0201E00201C2020187
:10019E00C70201E00201CC0201D10201D60201DB4D
:1001AE001209218030120A9B802B120626802612FD
:1001BE000AFA8021120C3C801C1208668017120B62
:1001CE00588012120A41800D120BC68008120C9232
:1001DE008003120C5C90078EE0640160030202E45F
:1001EE0090079C7402F0C390078DE0944090078CAA
:1001FE00E094004061E59620E7FB759620E49007B9
:10020E00A8F09007A8E0FFC394405022900787E023
:10021E00FBA3E0FAA3E0F98F82758300120F7CF541
:10022E0097E59620E7FB9007A8E004F080D49007AE
:10023E0088E475F040120FA990078DE024C0F0906D
:10024E00078CE034FFF090078BE02440F090078A93
:10025E00E03400F08052E59620E7FB759620E4909E
:10026E0007A8F09007A8E0FFD390078DE09F9007B6
:10027E008CE094004026900787E0FBA3E0FAA3E011
:10028E00F99007A8E0F582758300120F7CF597E5CB
:10029E009620E7FB9007A8E004F080C790079CE04B
:1002AE004408F0E490078EF0900796E0FEA3E0FF7E
:1002BE0090078AE0B50611A3E0B5070C90079CE005
:1002CE004408F0E490078EF0E59620E7FB75961152
:0702DE0090079CE0F5972258
:100C5C00E59620E7FB75960EE4F597E59620E7FB05
:0D0C6C0075961175972090078E7404F02284
:1009210090077EE0247F60071460062402704880EF
:100931002D90078FE0B40309900782E0B402028092
:100941000E900790E0B40316900782E0B4820F90F6
:10095100078774FFF0A3740AF0A3743D800D90071C
:100961008774FFF0A3740AF0A3743FF090078CE43E
:10097100F0A37402F08003120C5C90078EE0640413
:100981006010120C9290078E7401F0E490078AF0C7
:03099100A3F022AE
:100A9B00900780E07048900782E0FFB4021DE59656
:100AAB0020E7FB75960E759702E59620E7FB75968A
:100ABB0014759780E490078FF08026EFB4821DE5C4
:100ACB009620E7FB75960E759702E59620E7FB756A
:100ADB009611759740E4900790F080058000120CFA
:0F0AEB005CE59620E7FB75960EE4F597020C92FA
:10062600900794E0B4373CA3E0B40B3790078EE014
:1006360064046010120C9290078E7401F0E4900727
:100646008AF0A3F090079B7480F09007877401F0FE
:10065600A37407F0A3749BF090078CE4F0A304F056
:10066600020728900795E020E0030206FF90079313
:10067600E030E00854FEF04402F08007900793E073
:1006860054FDF0E59620E7FB75960E759702E59604
:1006960020E7FB759614759710E59620E7FB75968F
:1006A60011759708E59620E7FB759694E59620E781
:1006B600FB90079BE597F0E020E4E9E59620E7FB51
:1006C600759614759710E59620E7FB759691E59655
:1006D60020E7FB90079BE597F0E020E3E9E596200D
:1006E600E7FB7596117597089007917408F09007C7
:1006F60093E0FF30E1034401F0900794E0FCA3E0AF
:10070600FD30E10D9007867406F0900791E04410E5
:10071600F0ED30E20D9007867404F0900791E04406
:1007260020F0E59620E7FB75960EE4F597020C920D
:100AFA00900780E07047900782E0FFB4021BE596FA
:100B0A0020E7FB75960E759702E59620E7FB75962A
:100B1A001475972090078F801DEFB4821EE59620EA
:100B2A00E7FB75960E759702E59620E7FB75961119
:100B3A007597109007907403F080058000120C5C82
:0E0B4A00E59620E7FB75960EE4F597020C92F7
:100C3C00E59620E7FBE4F596900780E0FFF597EF4B
:100C4C0090078660057403F080037402F0020C9226
:10086600900781E024FE601B14603B2402707290A6
:1008760007877401F0A37407F0A37440F090074053
:10088600E080539007877401F0A37407F0A37452B5
:10089600F0900755E0FE900754E07C002400FFEC42
:1008A6003E90078C8035900780E0FFD3940340028A
:1008B600802FEF75F003A42472F582E43407F583E4
:1008C600E0FBA3E0FAA3E0F9900787EBF0A3EAF0D8
:1008D600A3E9F0120F63FF90078CE4F0A3EFF0801A
:1008E60003120C5C90078CE0FEA3E0FF900796E0F5
:1008F600FCA3E0FDC39FEC9E500890078CECF0A390
:10090600EDF090078EE064046010120C9290078E52
:0B0916007401F0E490078AF0A3F022C7
:100B5800900786E0FFB40414A374FFF0A3740AF0AE
:100B6800A3743DF090078CE4F0A304F0EFB40316EF
:100B780090078774FFF0A3740AF0A3743FF09007FE
:100B88008CE4F0A304F0120C9290078E7401F0E448
:070B980090078AF0A3F02290
:100A4100900780E0D394004042900791E04440F049
:100A51009007867404F0E490078FF0A3F0E59620E8
:100A6100E7FB75960E759702E59620E7FB759612E2
:100A7100759784E59620E7FB759615759780E59641
:100A810020E7FB75960EE4F597800C9007867403BA
:0A0A9100F090078FF0A3F0020C9222
:100BC60090078774FFF0A3740AF0A3743FF09007B0
:100BD6008CE4F0A304F0120C9290078E7401F0E4FA
:070BE60090078AF0A3F02242
:100C920090078EE06404600BE59620E7FB759611E1
:040CA20075974022E0
:030043000202E5D1
:1002E500C0E0C0F0C083C082C0D075D000C000C0DF
:1002F50001C002C003C004C005C006C00790079D29
:10030500E596F0E59620E7FB75968EE59620E7FBEA
:1003150090079EE597F0E59620E7FB759686E596AE
:1003250020E7FB900798E597F0E030E30BE5962092
:10033500E7FB75960B759707900798E030E2031277
:100345000B9F900798E030E014900786E0FF640467
:100355006004EFB40607900791E04480F0E596202D
:10036500E7FB759682E59620E7FB900798E597F001
:10037500E030E0031200AE900798E030E22AE596FF
:1003850020E7FB75960E759702E59620E7FB7596B7
:1003950091E59620E7FB900799E597F0E054037007
:1003A50007900791E04402F0E59620E7FB759684F7
:1003B500E59620E7FB900798E597F0E030E229E520
:1003C5009620E7FB75960E759702E59620E7FB7577
:1003D5009694E59620E7FB900799E597F0E030E0E5
:1003E50007900791E04404F0E59620E7FB75960E2B
:1003F50090079EE0F597E59620E7FB90079DE5962B
:10040500F0E59620E7FB900793E030E0099007912F
:10041500E06003120C1AD007D006D005D004D00333
:10042500D002D001D000D0D0D082D083D0F0D0E09F
:010435003294
:107F3700E49007A8F0E5B964E0603853A90F90070B
:107F4700A7E5A9F043B280E5A95407D394014003FC
:107F5700E4F5A9E4F5B943B9809007A8E014F070F7
:107F6700F843B9C0E5B930E5FB9007A7E0B40203D1
:077F770043A90253A90F22E8
:10099400E5A954029007A8F053D7BF75A910E4F550
:1009A400B9F586F5AF43C91300000000000000004C
:1009B4000000000000000000000000000000000033
:1009C400000043B2809007A77402F09007A7E020CC
:1009D400E105E5C920E61843B220E59620E7FB755A
:1009E4009681E59620E7FB9007A7E597F080DC0069
:1009F40053C9EC75AF209007A8E042A9127F374392
:030A0400D74022B6
:100BED009007A7E5A8F0C2AFC2AF53E6FDE4F5D775
:100BFD00E59620E7FB759601759708E5A920E106B6
:0D0C0D0043A910E4F5B99007A7E0F5A8226F
:0F0CA600900791E0FF9007A7F0E4900791F022EC
:057F8A007E037F602270
:100736009007A8EDF09007ABEBF0A3EAF0A3E9F081
:10074600900786E0B40606EDD3944040037F00226E
:10075600E59620E7FB75960E759702E59620E7FB72
:10076600759694E59620E7FB90079AE597F0E020CA
:10077600E003020863E59620E7FB759696E596206A
:10078600E7FB900792E597F0E0FFEDC39F5006AEBA
:1007960005AF068000900792EFF053E6FDE5962040
:1007A600E7FB7596E2900792E07003020847900710
:1007B600ABE0FF7020A3A3E090079FF0E59620E74B
:1007C600FB90079FE0F8A697E004F09007A8E014D6
:1007D600F070E9806CEF20E73C9007ABA3E0FAA34A
:1007E600E0FF9007A1EAF0A3EFF0E59620E7FB9083
:1007F60007A1E0FEA3E0F5828E83E597F09007A2BD
:10080600E004F070069007A1E004F09007A8E01459
:10081600F070D7802C9007ABE064FE7021A3A3E0B4
:100826009007A5F0E59620E7FB9007A5E0F8E59789
:10083600F2E004F09007A8E014F070E880037F006F
:1008460022E59620E7FBE4F596E59620E7FB75960C
:1008560014E4F59743E602900792E0FF227F002218
:10043600E49007A7F09007A9F0A3F09007ABEBF0C4
:10044600A3EAF0A3E9F0900786E0B4060DED4C6050
:1004560009D3ED9400EC94104004E4FEFF2253E629
:10046600FD9007A7E030E00302061AE59620E7FBB9
:1004760075960E759702E59620E7FB759691E596BB
:1004860020E7FB9007A7E597F0E030E020E596200F
:10049600E7FB75960EE4F597E59620E7FB759691D2
:1004A600E59620E7FB9007A7E597F080B4D3ED9497
:1004B60040EC94009007A840057440F08002EDF0EF
:1004C600E59620E7FB7596229007A8E070030205E3
:1004D600CA9007ABE0702DA3A3E0F99007A9A3E0AB
:1004E600FFE92FF990079FE9F0E59620E7FB9007D3
:1004F6009FE0F8E6F597E004F09007A8E014F070A6
:10050600E80205CA9007ABE020E747A3E0FAA3E0BC
:10051600F99007A9E0FEA3E0FFE92FF9EA3EAF0153
:100526009007A1F0A3EFF0E59620E7FB9007A1E086
:10053600FEA3E0F5828E83E0F5979007A2E004F033
:1005460070069007A1E004F09007A8E014F070D7B9
:1005560080729007ABE064FE7021A3A3E09007A52C
:10056600F0E59620E7FB9007A5E0F8E597F2E004B2
:10057600F09007A8E014F070E880499007ABA3E07C
:10058600FAA3E0F99007A9E0FEA3E0FFE92FF9EA54
:100596003EAF019007A3F0A3EFF0E59620E7FB90AE
:1005A60007A3E0FEA3E0F5828E83E493F597900718
:1005B600A4E004F070069007A3E004F09007A8E01A
:1005C60014F070D6C3ED9440EC94009007AAE04076
:1005D6001F2440F09007A9E03400F074C02DFD748C
:1005E600FF3CFCE49007A7F09007A87440F0801643
:1005F6002DF09007A9E03CF09007A77401F0900752
:10060600A8EDF0E4FCFDE59620E7FB7596117597DD
:100616000102046743E6029007A9E0FEA3E0FF2279
:100C7900900793E04401F0900791E0600BE596201E
:090C8900E7FB75960B75970F222D
:080CB500900793E054FEF022C9
:0C7F7E00E59620E7FB75960F75978F22A3
:100C1A00D007D007D007D006D005D004D003D00221
:100C2A00D001D000D0D0D082D083D0F0D0E0020062
:020C3A008B220B
:100EE300020D43E493A3F8E493A34003F68001F2D5
:100EF30008DFF48029E493A3F85407240CC8C33310
:100F0300C4540F4420C8834004F456800146F6DFDE
:100F1300E4800B0102040810204080907F8FE47E60
:100F2300019360BCA3FF543F30E509541FFEE493D3
:100F3300A360010ECF54C025E060A840B8E493A39A
:100F4300FAE493A3F8E493A3C8C582C8CAC583CAC5
:100F5300F0A3C8C582C8CAC583CADFE9DEE780BE7D
:017F920000EE
:100F6300BB010689828A83E0225002E722BBFE028C
:090F7300E32289828A83E49322BF
:100F7C00BB010CE58229F582E5833AF583E022502A
:100F8C0006E92582F8E622BBFE06E92582F8E22274
:0D0F9C00E58229F582E5833AF583E493228E
:100FA900C5F0F8A3E028F0C5F0F8E58215827002D3
:060FB9001583E038F02270
:090FBF00EBF0A3EAF0A3E9F02233
:100FC800D083D082F8E4937012740193700DA3A3B8
:100FD80093F8740193F5828883E4737402936860CC
:060FE800EFA3A3A380DFCC
:00000001FF
