:01140C00706F
:1016F100010B00010C00010900010A00011D00019C
:10170100080008150000000000000000080D00009E
:06171100000000000000D2
:10143600E4F526F525F524F52353D9BF123D37905B
:101446000C6CE493FE740193FF900C6EE493FC74B1
:101456000193FD9007B674FFF0A3740CF0A374A279
:10146600F0A374FFF0A3740CF0A374D8F0900CD41E
:10147600E4939007BCF0900CD5E4939007BDF090F0
:101486000CD6E493FB7401939007BECBF0A3EBF06C
:101496007BFF7A0C7970123C00121403120C28E5BB
:1014A60015B40104D2A28002C2A2E516B40104D288
:1014B600A38002C2A3E517540FF590850B0D850C8A
:1014C6000EE580540FF50F851D10850811E5A02047
:1014D600E005E5A030E119E51A64156013E4FFFEA6
:1014E600FDFCAB26AA25A924A823D3121741401830
:1014F600751205E5262401F526E43525F525E4359E
:1015060024F524E43523F523E47F987E3AFDFCABED
:1015160026AA25A924A823D31217414082C2AF12B6
:05152600FFFF0214A507
:1017180075F27F43A40F43A50F43A60C75D580E44B
:06172800F5E175E240222C
:10172E00E4F5C8538E0F75CB7B75CA8074FFF5CD6B
:03173E00F5CC22C5
:1017520075D10E75BB1E75BA1F75BCF875E8C2222D
:1016930085E822A2AD9200E4F5F1F5F2F5F3F5F455
:1016A30053E87FC2AD120974E522548042E875F114
:0E16B300FF75F27F75F3FF75F401A20092AD92
:0116C1002206
:0914030012171812172E021752DD
:031412000216C2FD
:1016C200C0E0E5A020E00CE509700B630BFF750993
:1016D200018003750900E5A020E10CE50A700B63A7
:0F16E2000CFF750A018003750A00C2CFD0E032F9
:0314210002162A86
:10162A00C0E0C0F0C083C082C0D075D000C000C086
:10163A0001C002C003C004C005C006C007E5BBB4B0
:10164A001E1485BD0890140CE4932508F50875BB93
:10165A000775BCFC800985BE1D75BB1E75BCF8C22A
:10166A00ED7B007A00790D7D087C00120416D00704
:10167A00D006D005D004D003D002D001D000D0D0FB
:09168A00D082D083D0F0D0E03210
:031433000215B7E8
:1015B700C0E0C0F0C083C082C0D075D000C000C0FA
:0D15C70001C002C003C004C005C006C0077B
:1015D400120C558F21E52130E20B7B007A0079153E
:1015E4007D08120716E52130E703121693E5213032
:1015F400E40A43E88043E608D2ADD2CAE52130E5E7
:0B1604000A53E6F753E87FC2ADC2CAEC
:10160F00D007D006D005D004D003D002D001D0002F
:0B161F00D0D0D082D083D0F0D0E032D9
:013BFB008148
:023BFC000100C6
:0314000002152BA7
:0C152B00787FE4F6D8FD75812F02157260
:10153700021436E493A3F8E493A34003F68001F280
:1015470008DFF48029E493A3F85407240CC8C333B5
:10155700C4540F4420C8834004F456800146F6DF84
:10156700E4800B01020408102040809016F1E47E0D
:10157700019360BCA3FF543F30E509541FFEE49379
:10158700A360010ECF54C025E060A840B8E493A340
:10159700FAE493A3F8E493A3C8C582C8CAC583CA6B
:1015A700F0A3C8C582C8CAC583CADFE9DEE780BE23
:0117170000D1
:10174100EB9FF5F0EA9E42F0E99D42F0E89C45F0FE
:011751002275
:00000001FF
