:01140C00706F
:10170100010B00010C00010900010A00011D00018B
:10171100080008150000000000000000080D00008E
:06172100000000000000C2
:10143900E4F526F525F524F52353D9BF127F379016
:101449000CBDE493FE740193FF900CBFE493FC740C
:101459000193FD9007B674FFF0A3740CF0A374F325
:10146900F0A374FFF0A3740DF0A37429F0900D2577
:10147900E4939007BCF0900D26E4939007BDF0909B
:101489000D27E493FB7401939007BECBF0A3EBF017
:101499007BFF7A0C79C1127E00121403120C79E5D4
:1014A90015B40104D2A28002C2A2E516B40104D285
:1014B900A38002C2A3E517540FF590850B0D850C87
:1014C9000EE580540FF50F851D10850811E5A02044
:1014D900E005E5A030E119E51A64156013E4FFFEA3
:1014E900FDFCAB26AA25A924A823D312142440184D
:1014F900751205E5262401F526E43525F525E4359B
:1015090024F524E43523F523E47F987E3AFDFCABEA
:1015190026AA25A924A823D31214244082C2AF12D3
:05152900FFFF0214A801
:1017280075F27F43A40F43A50F43A60C75D580E43B
:06173800F5E175E240221C
:10173E00E4F5C8538E0F75CB7B75CA8074FFF5CD5B
:03174E00F5CC22B5
:1017510075D10E75BB1E75BA1F75BCF875E8C2222E
:1016A30085E822A2AD9200E4F5F1F5F2F5F3F5F445
:1016B30053E87FC2AD120994E522548042E875F1E4
:0E16C300FF75F27F75F3FF75F401A20092AD82
:0116D10022F6
:0914030012172812173E021751BE
:031412000216D2ED
:1016D200C0E0E5A020E00CE509700B630BFF750983
:1016E200018003750900E5A020E10CE50A700B6397
:0F16F2000CFF750A018003750A00C2CFD0E032E9
:031421000215BAF7
:1015BA00C0E0C0F0C083C082C0D075D000C000C0F7
:1015CA0001C002C003C004C005C006C007E5BBB421
:1015DA001E1485BD0890140CE4932508F50875BB04
:1015EA000475BCFC800985BE1D75BB1E75BCF8E57B
:1015FA0013B401057513028003751301C2ED7B0054
:10160A007A00790D7D087C00120436D007D006D006
:10161A0005D004D003D002D001D000D0D0D082D0DF
:06162A0083D0F0D0E03295
:031436000216306B
:10163000C0E0C0F0C083C082C0D075D000C000C080
:0D16400001C002C003C004C005C006C00701
:10164D00120CA68F21E52130E20B7B007A00791573
:10165D007D08120736E52130E7031216A3E5213088
:10166D00E40A43E88043E608D2ADD2CAE52130E56D
:0B167D000A53E6F753E87FC2ADC2CA73
:10168800D007D006D005D004D003D002D001D000B6
:0B169800D0D0D082D083D0F0D0E03260
:017DFB008502
:027DFC00010084
:0314000002152EA4
:0C152E00787FE4F6D8FD75812F0215755A
:10153A00021439E493A3F8E493A34003F68001F27A
:10154A0008DFF48029E493A3F85407240CC8C333B2
:10155A00C4540F4420C8834004F456800146F6DF81
:10156A00E4800B0102040810204080901701E47EF9
:10157A00019360BCA3FF543F30E509541FFEE49376
:10158A00A360010ECF54C025E060A840B8E493A33D
:10159A00FAE493A3F8E493A3C8C582C8CAC583CA68
:1015AA00F0A3C8C582C8CAC583CADFE9DEE780BE20
:0117270000C1
:10142400EB9FF5F0EA9E42F0E99D42F0E89C45F01E
:011434002295
:00000001FF
