:033D8F00011B0114
:1010F700E4F516AE36AF37E535B50708E534B5067E
:1011070003D38001C3401BE516944050151211D933
:10111700AE16051674402EF582E43403F583EFF01E
:1011270080D1E5166015E51B60FCE4F51B7B017AB1
:0B113700037940E516FD7C0012041651
:01114200228A
:100FFB00D3E5319533E53095325015C37480953375
:10100B00FF74019532FEE5312FFFE5303EFE800B7C
:10101B00C3E5319533FFE5309532FEC3EF9440EED7
:10102B009400402B7B017A0379007D401207168FC9
:10103B0009E4F50AE50AC3950950147400250AF56D
:0F104B0082E43403F583E0FF120046050A80E5D6
:01105A002273
:03008B00020F9AC7
:100F9A00C0E0C0F0C083C082C0D075D000C000C01D
:0D0FAA0001C002C003C004C005C006C0079E
:100FB700120C558F08E50830E103751B01E5083071
:100FC700E203120FFBE508543860061212F4751B92
:090FD70001E50830E7031209747A
:100FE000D007D006D005D004D003D002D001D00065
:0B0FF000D0D0D082D083D0F0D0E0320F
:1012D3008519B7851AB7758F0175FF8075EF0622DB
:1012E300903BFE74019322D3E5189400E517943ADA
:0112F30022D8
:100CF2001212DCE5B020E004D27F80241212E364F9
:100D0200C27004E493643D6004D27F8013E5EF2057
:100D1200E109E5EF30E604D27F8005C27F121400BC
:100D2200E4F519F51A1212F4751714751800123D2C
:100D320037900C6CE493FE740193FF900C6EE49375
:100D4200FC740193FD7BFF7A0C79A29003F6120FDB
:100D52006B7A0C79E49003F9120F6B900CD4E49344
:100D62009003FCF0900CD5E4939003FDF0900CD628
:100D7200E493FB7401939003FECBF0A3EBF07BFFB3
:100D82007A0C7970123C0043A902120C2812105BF3
:100D9200EF120F740DB2000DB7010DBC020DC103AD
:100DA2000DC6040DCB050DD0060DD50700000DDADA
:100DB20012114380D812128680D312121E80CE12D4
:100DC2000DE480C912118E80C412007080BF12130C
:100DD2000D80BA1210AA80B57F0212125C12002690
:020DE20080ABE4
:101143007F0212125C7F0C12125C123D8A8E0B8F8F
:101153000CE50BFF12125CAF0CE50C12125C903B1A
:10116300FC121187903BFD121187903BFEE493FF25
:1011730012125C903BFFE493FF12125C7F82121207
:041183005C020026E4
:07118700E493FF12125C2249
:1012860012105B8F0BE50BC3940A4007E50BD39452
:101296001D40047F01800BE50B25E0F5177518004E
:0812A600E4FF12125C120026A5
:0112AE00221D
:10121E00E5196004E51A70047F04802BC3E517946A
:10122E001440051212EA40047F01801BC2AF8518DC
:10123E0082851783758F038519B7851AB71212DC4D
:0D124E00E4F0F58FD2AFFF12125C12002603
:01125B002270
:100DE40012105B8F0FE5196004E51A70047F04800C
:100DF4003D1212E3F47003E493F460047F03802E45
:100E0400C3E517941440051212EA40047F01801EC2
:100E140085170D85180EE50FB4010BE4250EF50EAC
:100E24007401350DF50DE50F54FE60087F011212B3
:100E34005C020026E4FF12125C120026E4F50BF5B6
:100E44000C12105BC2AF1212D3050EE50EAC0D707E
:100E540002050D14F5828C83EFF0E4F58FD2AF0513
:100E64000CE50C7002050BC3E50B940140D3E4FFC1
:0E0E740012125C120026E50FB4010312118E5B
:010E8200224D
:10118E00851714851815E4F512F513F510F511856C
:10119E001582851483E493FDAF13AE121212AF8E37
:1011AE00128F130515E515700205140511E5117062
:1011BE00020510C3E510940240D5E512FF12125C31
:0A11CE00AF13E51312125C120026A5
:0111D80022F4
:1012AF00ED6207E4FDEF30E00FEEC313FEEF13FF27
:1012BF006307086306848007EEC313FEEF13FF0D69
:0312CF00BD08E275
:0112D20022F9
:10130D0012105B8F1912105B8F1AE4FF12125C1210
:03131D0000262285
:1010AA00750B3B750CFE12105B8F0D12105B8F0EC9
:1010BA001212E3F47003E493F460047F038027C2FE
:1010CA00AF7F021212D3740C2FF8E6FE050CE50C62
:1010DA00AC0B7002050B14F5828C83EEF0E4F58FED
:0C10EA00DFE1D2AFE4FF12125C1200261E
:0110F60022D7
:0900700075EF12120B9C020C64E6
:1012F40075320175337F75300175317F753601752F
:09130400377F75340175357F2235
:10004600E533B47F0BE532B401067C007D00800900
:10005600E5332401FDE43532FC8C328D3374802D7A
:0A006600F58274013CF583EFF022EF
:10125C00E537B47F0BE536B401067C007D008009D0
:10126C00E5372401FDE43536FC8C368D3774002DC2
:0A127C00F58274003CF583EFF022C8
:10002600AE36AF37E535B50708E534B50603D380F8
:0A00360001C340051210F780E72215
:10105B00D20030001CE53165337004E53065326039
:10106B00F4E53165337004E530653260E5C200802C
:10107B00E1E531B47F0BE530B401067E007F0080E3
:10108B0009E5312401FFE43530FE8E308F31AE306F
:0E109B00AF3174802FF58274013EF583E0FFC3
:0110A9002224
:1011D900AE36AF37E535B50708E534B50603D38034
:1011E90001C3402EE535B47F0BE534B401067E001A
:1011F9007F008009E5352401FFE43534FE8E348F04
:1012090035AE34AF3574002FF58274003EF583E0B6
:05121900FF227F00220E
:100C6C0010C4EA610E03530049004C0041004200DD
:100C7C005300000000000000000000000000000015
:100C8C000000000000000000000000000000000058
:100C9C00000000000000100355005300420020002B
:100CAC00410050004900000000000000000000005E
:100CBC000000000000000000000000000000000028
:100CCC0000000000000000000F8001000C03410038
:100CDC0052003500570032000E034100520035001F
:060CEC00570032007E00FB
:03000300021403E1
:03000B00021406D6
:03001300021409CB
:03001B0002140CC0
:0300230002140FB5
:03007B000214303C
:08008300207F03021433018BFE
:03000000020E836A
:0C0E8300787FE4F6D8FD758137020ECAB6
:1009B6001201100100000040C410000000000102F6
:1009C60003010902200001010080FA090400000267
:1009D600FF000000070501024000000705810240F4
:0A09E60000000403090401000000F2
:103C00009003EFEEF0A3EFF09003F3EBF0A3EAF0F4
:103C1000A3E9F0E49003E8F09003E8E0FF9009B630
:103C200093FE74802FF582E43403F583EEF0900365
:103C3000E8E004F0E0B412E0E49003E8F09003E878
:103C4000E0FF9009C893FE74922FF582E43403F5E7
:103C500083EEF09003E8E004F0E0B420E09003EF9E
:103C6000E0FAA3E0900388F0EAA3F0EDA3F0ECA360
:103C7000F09003B274FFF0A37409F0A374E8F0901D
:103C800003F3E0F9A3E0FAA3E09003B5C9F0A3EAD7
:103C9000F0A3E9F09003F6E0F9A3E0FAA3E09003C3
:103CA000B8C9F0A3EAF0A3E9F09003F9E0F9A3E0C2
:103CB000FAA3E09003BBC9F0A3EAF0A3E9F09003F4
:103CC000FCE0FFC394FA500590039AEFF09003FDD7
:103CD000E0900399F09003FEE0FEA3E090038CF0E7
:103CE000EEA3F0E59620E7FB759601759708E5963B
:103CF00020E7FB759607759703E59620E7FB759619
:103D000009759702E59620E7FB75960B7597077581
:103D1000D7E0123D7EE49003D2F09003D1F09003FF
:103D2000D3F09003C6F043E602D2AFE59620E7FB5E
:073D30007596017597012251
:100B4E009003C67402F0E59620E7FB759601759743
:100B5E0001E49003CEF0A37403F0A3F0E49003D26B
:070B6E00F09003D104F02216
:10008E00E59620E7FB75960EE4F597E59620E7FBDF
:10009E00759691E59620E7FB9003DCE597F0E0FF7F
:1000AE0030E210E59620E7FB759611E4F597900384
:1000BE00CEF022EF30E410E59620E7FB7596117531
:1000CE009780E49003CEF09003CEE060030201C36C
:1000DE009003DCE020E0030201C37596204396C036
:1000EE00E49003E8F0E59620E7FB9003E8E024BEF9
:1000FE00F582E43403F583E597F09003E8E004F02D
:10010E00E0B407E1E59620E7FBE4F5969003E8E01E
:10011E0024BEF582E43403F583E597F09003C1E045
:10012E00FE9003C0E07C002400FFEC3E9003D4F070
:10013E00A3EFF09003C5E0FE9003C4E02400FFECB3
:10014E003E9003D6F0A3EFF09003BFE004603B14A3
:10015E00B40C00505D90016AF828287302018E02DB
:10016E00019302019802019D0201C00201A2020147
:10017E00A70201C00201AC0201B10201B60201BB2D
:10018E001209018030120A4A802B120606802612AE
:10019E000AA98021120BEB801C1208468017120B45
:1001AE000780121209F0800D120B758008120C4197
:1001BE008003120C0B9003CEE0640160030202C4B4
:1001CE009003DC7402F0C39003CDE094409003CC16
:1001DE00E094004061E59620E7FB759620E49003DD
:1001EE00E8F09003E8E0FFC3944050229003C7E08C
:1001FE00FBA3E0FAA3E0F98F82758300120F28F5B6
:10020E0097E59620E7FB9003E8E004F080D4900396
:10021E00C8E475F040120F559003CDE024C0F09065
:10022E0003CCE034FFF09003CBE02440F09003CAFF
:10023E00E03400F08052E59620E7FB759620E490BE
:10024E0003E8F09003E8E0FFD39003CDE09F900326
:10025E00CCE0940040269003C7E0FBA3E0FAA3E0B5
:10026E00F99003E8E0F582758300120F28F597E503
:10027E009620E7FB9003E8E004F080C79003DCE0F3
:10028E004408F0E49003CEF09003D6E0FEA3E0FF26
:10029E009003CAE0B50611A3E0B5070C9003DCE0AD
:1002AE004408F0E49003CEF0E59620E7FB75961136
:0702BE009003DCE0F597223C
:100C0B00E59620E7FB75960EE4F597E59620E7FB56
:0D0C1B007596117597209003CE7404F02299
:100901009003BEE0247F60071460062402704880D3
:100911002D9003CFE0B403099003C2E0B40102803B
:100921000E9003D0E0B403169003C2E0B4810F909F
:1009310003C774FFF0A37409F0A374EC800D900356
:10094100C774FFF0A37409F0A374EEF09003CCE434
:10095100F0A37402F08003120C0B9003CEE0640448
:100961006010120C419003CE7401F0E49003CAF0C0
:03097100A3F022CE
:100A4A009003C0E070489003C2E0FFB4011DE59630
:100A5A0020E7FB75960E759701E59620E7FB7596DC
:100A6A0014759780E49003CFF08026EFB4811DE5DA
:100A7A009620E7FB75960E759701E59620E7FB75BC
:100A8A009611759740E49003D0F080058000120C0F
:0F0A9A000BE59620E7FB75960EE4F597020C41ED
:100606009003D4E0B4373CA3E0B40B379003CEE0BC
:1006160064046010120C419003CE7401F0E4900360
:10062600CAF0A3F09003DB7480F09003C77401F066
:10063600A37403F0A374DBF09003CCE4F0A304F0FE
:100646000207089003D5E020E0030206DF9003D3FB
:10065600E030E00854FEF04402F080079003D3E057
:1006660054FDF0E59620E7FB75960E759701E59625
:1006760020E7FB759614759710E59620E7FB7596AF
:1006860011759708E59620E7FB759694E59620E7A1
:10069600FB9003DBE597F0E020E4E9E59620E7FB35
:1006A600759614759710E59620E7FB759691E59675
:1006B60020E7FB9003DBE597F0E020E3E9E59620F1
:1006C600E7FB7596117597089003D17408F09003AF
:1006D600D3E0FF30E1034401F09003D4E0FCA3E053
:1006E600FD30E10D9003C67406F09003D1E044108E
:1006F600F0ED30E20D9003C67404F09003D1E044AF
:1007060020F0E59620E7FB75960EE4F597020C417E
:100AA9009003C0E070479003C2E0FFB4011BE596D4
:100AB90020E7FB75960E759701E59620E7FB75967D
:100AC900147597209003CF801DEFB4811EE5962001
:100AD900E7FB75960E759701E59620E7FB7596116C
:100AE9007597109003D07403F080058000120C0BE9
:0E0AF900E59620E7FB75960EE4F597020C419A
:100BEB00E59620E7FBE4F5969003C0E0FFF597EF61
:100BFB009003C660057403F080037402F0020C418D
:100846009003C1E024FE601B14603B24027072908A
:1008560003C77401F0A37403F0A37480F0900380BF
:10086600E080539003C77401F0A37403F0A374925D
:10087600F0900395E0FE900394E07C002400FFECEA
:100886003E9003CC80359003C0E0FFD39403400232
:10089600802FEF75F003A424B2F582E43403F583C8
:1008A600E0FBA3E0FAA3E0F99003C7EBF0A3EAF0BC
:1008B600A3E9F0120F0FFF9003CCE4F0A3EFF08052
:1008C60003120C0B9003CCE0FEA3E0FF9003D6E0EE
:1008D600FCA3E0FDC39FEC9E50089003CCECF0A374
:1008E600EDF09003CEE064046010120C419003CE4C
:0B08F6007401F0E49003CAF0A3F022AC
:100B07009003C6E0FFB40414A374FFF0A37409F0C4
:100B1700A374ECF09003CCE4F0A304F0EFB4031655
:100B27009003C774FFF0A37409F0A374EEF0900369
:100B3700CCE4F0A304F0120C419003CE7401F0E46E
:070B47009003CAF0A3F022A5
:1009F0009003C0E0D3940040429003D1E04440F023
:100A00009003C67404F0E49003CFF0A3F0E59620C1
:100A1000E7FB75960E759701E59620E7FB75961234
:100A2000E4F597E59620E7FB759615759780E596B2
:100A300020E7FB75960EE4F597800C9003C67403CF
:0A0A4000F09003CFF0A3F0020C4188
:100B75009003C774FFF0A37409F0A374EEF090031B
:100B8500CCE4F0A304F0120C419003CE7401F0E420
:070B95009003CAF0A3F02257
:100C41009003CEE06404600BE59620E7FB759611F6
:040C51007597402231
:030043000202C5F1
:1002C500C0E0C0F0C083C082C0D075D000C000C0FF
:1002D50001C002C003C004C005C006C0079003DD0D
:1002E500E596F0E59620E7FB75968EE59620E7FB0B
:1002F5009003DEE597F0E59620E7FB759686E59693
:1003050020E7FB9003D8E597F0E030E30BE5962076
:10031500E7FB75960B7597079003D8E030E203125B
:100325000B4E9003D8E030E0149003C6E0FF640460
:100335006004EFB406079003D1E04480F0E5962011
:10034500E7FB759682E59620E7FB9003D8E597F0E5
:10035500E030E00312008E9003D8E030E12AE59604
:1003650020E7FB75960E759701E59620E7FB7596D8
:1003750091E59620E7FB9003D9E597F0E0540370EB
:10038500079003D1E04402F0E59620E7FB759684DB
:10039500E59620E7FB9003D8E597F0E030E129E505
:1003A5009620E7FB75960E759701E59620E7FB7598
:1003B5009694E59620E7FB9003D9E597F0E030E0C9
:1003C500079003D1E04404F0E59620E7FB75960E0F
:1003D5009003DEE0F597E59620E7FB9003DDE596D3
:1003E500F0E59620E7FB9003D3E030E0099003D1D8
:1003F500E06003120BC9D007D006D005D004D003A6
:10040500D002D001D000D0D0D082D083D0F0D0E0BF
:0104150032B4
:103D3700E49003E8F0E5B964E0603853A90F900315
:103D4700E7E5A9F043B280E5A95407D394014003FE
:103D5700E4F5A9E4F5B943B9809003E8E014F070FD
:103D6700F843B9C0E5B930E5FB9003E7E0B40203D7
:073D770043A90253A90F222A
:10097400E5A954029003E8F053D7BF75A910E4F534
:10098400B943C9100000000000000000000000008E
:10099400000000000000000000000000000043B25E
:1009A4008043B2200053C9EFE042A9123D3743D738
:0209B4004022DF
:100B9C009003E7E5A8F0C2AFC2AF53E6FDE4F5D78A
:100BAC00E59620E7FB759601759708E5A920E10607
:0D0BBC0043A910E4F5B99003E7E0F5A82285
:0F0C55009003D1E0FF9003E7F0E49003D1F02289
:053D8A007E037F6022B2
:100716009003E8EDF09003EBEBF0A3EAF0A3E9F029
:100726009003C6E0B40606EDD3944040037F002252
:10073600E59620E7FB75960E759701E59620E7FB93
:10074600759694E59620E7FB9003DAE597F0E020AE
:10075600E003020843E59620E7FB759696E59620AA
:10076600E7FB9003D2E597F0E0FFEDC39F5006AE9E
:1007760005AF0680009003D2EFF053E6FDE5962024
:10078600E7FB7596E19003D2E07003020827900319
:10079600EBE0FF7020A3A3E09003DFF0E59620E7EF
:1007A600FB9003DFE0F8A697E004F09003E8E0147E
:1007B600F070E9806CEF20E73C9003EBA3E0FAA32E
:1007C600E0FF9003E1EAF0A3EFF0E59620E7FB9067
:1007D60003E1E0FEA3E0F5828E83E597F09003E265
:1007E600E004F070069003E1E004F09003E8E01402
:1007F600F070D7802C9003EBE064FE7021A3A3E099
:100806009003E5F0E59620E7FB9003E5E0F8E59731
:10081600F2E004F09003E8E014F070E880037F0053
:1008260022E59620E7FBE4F596E59620E7FB75962C
:1008360014E4F59743E6029003D2E0FF227F0022FC
:10041600E49003E7F09003E9F0A3F09003EBEBF030
:10042600A3EAF0A3E9F09003C6E0B4060DED4C6034
:1004360009D3ED9400EC94104004E4FEFF2253E649
:10044600FD9003E7E030E0030205FAE59620E7FBBE
:1004560075960E759701E59620E7FB759691E596DC
:1004660020E7FB9003E7E597F0E030E020E59620F3
:10047600E7FB75960EE4F597E59620E7FB759691F2
:10048600E59620E7FB9003E7E597F080B4D3ED947B
:1004960040EC94009003E840057440F08002EDF0D3
:1004A600E59620E7FB7596219003E8E070030205C8
:1004B600AA9003EBE0702DA3A3E0F99003E9A3E073
:1004C600FFE92FF99003DFE9F0E59620E7FB9003BB
:1004D600DFE0F8E6F597E004F09003E8E014F0704A
:1004E600E80205AA9003EBE020E747A3E0FAA3E0C1
:1004F600F99003E9E0FEA3E0FFE92FF9EA3EAF0138
:100506009003E1F0A3EFF0E59620E7FB9003E1E02E
:10051600FEA3E0F5828E83E0F5979003E2E004F017
:1005260070069003E1E004F09003E8E014F070D761
:1005360080729003EBE064FE7021A3A3E09003E5D4
:10054600F0E59620E7FB9003E5E0F8E597F2E00496
:10055600F09003E8E014F070E880499003EBA3E024
:10056600FAA3E0F99003E9E0FEA3E0FFE92FF9EA38
:100576003EAF019003E3F0A3EFF0E59620E7FB9092
:1005860003E3E0FEA3E0F5828E83E493F597900300
:10059600E4E004F070069003E3E004F09003E8E082
:1005A60014F070D6C3ED9440EC94009003EAE0405A
:1005B6001F2440F09003E9E03400F074C02DFD7470
:1005C600FF3CFCE49003E7F09003E87440F08016EB
:1005D6002DF09003E9E03CF09003E77401F09003FE
:1005E600E8EDF0E4FCFDE59620E7FB7596117597BE
:1005F6000102044743E6029003E9E0FEA3E0FF227E
:100C28009003D3E04401F09003D1E0600BE59620F7
:090C3800E7FB75960B75970F227E
:080C64009003D3E054FEF022DE
:0C3D7E00E59620E7FB75960F75978922EB
:100BC900D007D007D007D006D005D004D003D00273
:100BD900D001D000D0D0D082D083D0F0D0E00200B4
:020BE900832265
:100E8F00020CF2E493A3F8E493A34003F68001F27B
:100E9F0008DFF48029E493A3F85407240CC8C33364
:100EAF00C4540F4420C8834004F456800146F6DF33
:100EBF00E4800B0102040810204080903D8FE47EF7
:100ECF00019360BCA3FF543F30E509541FFEE49328
:100EDF00A360010ECF54C025E060A840B8E493A3EF
:100EEF00FAE493A3F8E493A3C8C582C8CAC583CA1A
:100EFF00F0A3C8C582C8CAC583CADFE9DEE780BED2
:013D92000030
:100F0F00BB010689828A83E0225002E722BBFE02E0
:090F1F00E32289828A83E4932213
:100F2800BB010CE58229F582E5833AF583E022507E
:100F380006E92582F8E622BBFE06E92582F8E222C8
:0D0F4800E58229F582E5833AF583E49322E2
:100F5500C5F0F8A3E028F0C5F0F8E5821582700227
:060F65001583E038F022C4
:090F6B00EBF0A3EAF0A3E9F02287
:100F7400D083D082F8E4937012740193700DA3A30C
:100F840093F8740193F5828883E473740293686020
:060F9400EFA3A3A380DF20
:00000001FF
