:10165900010B00010C00010900010A00011D000134
:10166900080008150000000000000000080D000037
:061679000000000000006B
:10143600E4F525F524F523F522123D37900C6CE4EE
:1014460093FE740193FF900C6EE493FC740193FD7C
:101456009003F674FFF0A3740CF0A374A2F0A374C7
:10146600FFF0A3740CF0A374D8F0900CD4E493901E
:1014760003FCF0900CD5E4939003FDF0900CD6E4B9
:1014860093FB7401939003FECBF0A3EBF07BFF7A02
:101496000C7970123C00121403120C28E515B401E5
:1014A60004D2A28002C2A2E516B40104D2A380022D
:1014B600C2A3E517540FF580850B0D850C0EE5804C
:1014C60054F0C4540FF50F851D10850811E5A020B2
:1014D600E005E5A030E119E51A64156013E4FFFEA6
:1014E600FDFCAB25AA24A923A822D3121420401858
:1014F600751205E5252401F525E43524F524E435A2
:1015060023F523E43522F522E47F987E3AFDFCABF1
:1015160025AA24A923A822D312142050030214A218
:08152600C2AF12FFFF0214A284
:0D16800043A40F4380F043A60C43A00322B7
:0D168D00758920758E02758DF0758BFF221A
:10140F00A2AB920053A0F3C2AB120974A20092AB2D
:01141F0022AA
:0614030012168002168D96
:03140C0002162A9B
:10162A00C0E0C28FE5A020E00CE509700B630BFF58
:10163A007509018003750900E5A020E10CE50A702F
:0F164A000B630CFF750A018003750A00D0E032B4
:031433000215BAE5
:1015BA00C0E0C0F0C083C082C0D075D000C000C0F7
:0D15CA0001C002C003C004C005C006C00778
:1015D700120C558F21E52130E2187B007A0079152E
:1015E7007D081207167B007A00790D7D087C0012B2
:1015F7000416E52130E70312140FE52130E402D287
:081607008EE52130E502C28EE0
:10160F00D007D006D005D004D003D002D001D0002F
:0B161F00D0D0D082D083D0F0D0E032D9
:013BFB008247
:023BFC000100C6
:0314000002152EA4
:0C152E00787FE4F6D8FD75812F0215755A
:10153A00021436E493A3F8E493A34003F68001F27D
:10154A0008DFF48029E493A3F85407240CC8C333B2
:10155A00C4540F4420C8834004F456800146F6DF81
:10156A00E4800B0102040810204080901659E47EA2
:10157A00019360BCA3FF543F30E509541FFEE49376
:10158A00A360010ECF54C025E060A840B8E493A33D
:10159A00FAE493A3F8E493A3C8C582C8CAC583CA68
:1015AA00F0A3C8C582C8CAC583CADFE9DEE780BE20
:01167F00006A
:10142000EB9FF5F0EA9E42F0E99D42F0E89C45F022
:011430002299
:00000001FF
