:01F9FB008487
:02F9FC00010008
:0314000002152EA4
:0C152E00787FE4F6D8FD75812F0215755A
:01140C00706F
:1016F400010B00010C00010900010A00011D000199
:10170400080008150000000000000000080D00009B
:06171400000000000000CF
:10143900E4F524F523F522F52153D9BF12FB3790A2
:101449000C74E493FE740193FF900C76E493FC749E
:101459000193FD9007B674FFF0A3740CF0A374AA6E
:10146900F0A374FFF0A3740CF0A374E0F0900CDC0B
:10147900E4939007BCF0900CDDE4939007BDF090E5
:101489000CDEE493FB7401939007BECBF0A3EBF061
:101499007BFF7A0C797812FA00121403120C30E5EA
:1014A90015B40104D2A28002C2A2E516B40104D285
:1014B900A38002C2A3E517540FF590850B0D850C87
:1014C9000EE580540FF50F851D10850811E5A02044
:1014D900E005E5A030E119E51A64156013E4FFFEA3
:1014E900FDFCAB24AA23A922A821D3121424401855
:1014F900751205E5242401F524E43523F523E435A3
:1015090022F522E43521F521E47F987E3AFDFCABF2
:1015190024AA23A922A821D31214244082C2AF12DB
:05152900FFFF0214A801
:10171B0075F27F43A40F43A50F43A60C75D580E448
:06172B00F5E175E2402229
:10173100E4F5C8538E0F75CB7B75CA8074FFF5CD68
:03174100F5CC22C2
:1017440075D10E75BB1E75BA1F75BCF875E8C2223B
:1016960085E826A2AD9200E4F5F1F5F2F5F3F5F44E
:1016A60053E87FC2AD12097CE526548042E875F105
:0E16B600FF75F27F75F3FF75F401A20092AD8F
:0116C4002203
:0914030012171B121731021744E5
:031412000216C5FA
:1016C500C0E0E5A020E00CE509700B630BFF750990
:1016D500018003750900E5A020E10CE50A700B63A4
:0F16E5000CFF750A018003750A00C2CFD0E032F6
:0314210002162D83
:10162D00C0E0C0F0C083C082C0D075D000C000C083
:10163D0001C002C003C004C005C006C007E5BBB4AD
:10164D001E1485BD0890140CE4932508F50875BB90
:10165D000475BCFC800985BE1D75BB1E75BCF8C22A
:10166D00ED7B007A00790D7D087C0012041ED007F9
:10167D00D006D005D004D003D002D001D000D0D0F8
:09168D00D082D083D0F0D0E0320D
:031436000215BAE2
:1015BA00C0E0C0F0C083C082C0D075D000C000C0F7
:0D15CA0001C002C003C004C005C006C00778
:1015D700120C5D8F25E52530E20B7B007A0079152B
:1015E7007D0812071EE52530E703121696E525301C
:1015F700E40A43E88043E608D2ADD2CAE52530E5E0
:0B1607000A53E6F753E87FC2ADC2CAE9
:10161200D007D006D005D004D003D002D001D0002C
:0B162200D0D0D082D083D0F0D0E032D6
:10153A00021439E493A3F8E493A34003F68001F27A
:10154A0008DFF48029E493A3F85407240CC8C333B2
:10155A00C4540F4420C8834004F456800146F6DF81
:10156A00E4800B01020408102040809016F4E47E07
:10157A00019360BCA3FF543F30E509541FFEE49376
:10158A00A360010ECF54C025E060A840B8E493A33D
:10159A00FAE493A3F8E493A3C8C582C8CAC583CA68
:1015AA00F0A3C8C582C8CAC583CADFE9DEE780BE20
:01171A0000CE
:10142400EB9FF5F0EA9E42F0E99D42F0E89C45F01E
:011434002295
:00000001FF
