:03000E00011B01D2
:1010E300E4F516AE36AF37E535B50708E534B50692
:1010F30003D38001C3401BE51694405015121253CD
:10110300AE16051674402EF582E43403F583EFF032
:1011130080D1E5166015E51B60FCE4F51B7B017AC5
:0B112300037940E516FD7C001202E598
:01112E00229E
:100ED000D3E5319533E53095325015C374809533A1
:100EE000FF74019532FEE5312FFFE5303EFE800BA9
:100EF000C3E5319533FFE5309532FEC3EF9440EE04
:100F00009400402B7B017A0379007D4012075D8FAE
:100F100009E4F50AE50AC3950950147400250AF599
:0F0F200082E43403F583E0FF12133D050A80E5F8
:010F2F00229F
:0300AB00020E6FD3
:100E6F00C0E0C0F0C083C082C0D075D000C000C049
:0D0E7F0001C002C003C004C005C006C007CA
:100E8C0012FB218F08E50830E103751B01E50830E2
:100E9C00E203120ED0E5085438600612FAC8751B2E
:090EAC0001E50830E703120DFC1A
:100EB500D007D006D005D004D003D002D001D00091
:0B0EC500D0D0D082D083D0F0D0E0323B
:10FA6D008519B7851AB7758F0175FF8075EF062259
:10FA7D0090F9FE74019322D3E5189400E51794F8DC
:01FA8D002256
:10099D0053D9BF12FA76E5B020E004D27F8024123D
:1009AD00FA7D64C27004E493643D6004D27F8013C9
:1009BD00E5EF20E109E5EF30E604D27F8005C27F47
:1009CD00121400E4F519F51A12FAC87517147518F2
:1009DD000012120C900D03E493FE740193FF900D21
:1009ED0005E493FC740193FD7BFF7A0D7939900337
:1009FD0087120CD47A0D797B90038A120CD4900D4A
:100A0D006BE49390038DF0900D6CE49390038EF056
:100A1D00900D6DE493FB74019390038FCBF0A3EBDA
:100A2D00F07BFF7A0D790712062643A90212FAE12F
:100A3D00121047EF120CDD0A60000A65010A6A0206
:100A4D000A6F030A74040A79050A7E060A830700F1
:100A5D00000A8812112F80D812139180D312129888
:100A6D0080CE120B4D80C912117A80C412FB3C80CE
:100A7D00BF12FB0E80BA12109680B57F021213675B
:050A8D0012FAAE80AB7F
:10112F007F021213677F0C1213671200068E0B8F4C
:10113F000CE50BFF121367AF0CE50C12136790F958
:10114F00FC12117390F9FD12117390F9FEE493FFE5
:10115F0012136790F9FFE493FF1213677F86121340
:04116F006702FAAE6B
:07117300E493FF1213672251
:101391001210478F0BE50BC3940A4007E50BD3945A
:1013A1007C40047F01800BE50B25E0F517751800E3
:0813B100E4FF12136712FAAE0B
:0113B9002211
:10129800E5196004E51A70047F04802BC3E51794F0
:1012A80014400512FA8440047F01801BC2AF8518E0
:1012B80082851783758F038519B7851AB712FA7651
:0D12C800E4F0F58FD2AFFF12136712FAAEFB
:0112D50022F6
:100B4D001210478F0FE5196004E51A70047F0480B9
:100B5D003D12FA7DF47003E493F460047F03802E5C
:100B6D00C3E5179414400512FA8440047F01801EDA
:100B7D0085170D85180EE50FB4010BE4250EF50E46
:100B8D007401350DF50DE50F54FE60087F0112134C
:100B9D006702FAAEE4FF12136712FAAEE4F50BF535
:100BAD000C121047C2AF12FA6D050EE50EAC0D70AA
:100BBD0002050D14F5828C83EFF0E4F58FD2AF05AD
:100BCD000CE50C7002050BC3E50B940140D3E4FF5B
:0E0BDD0012136712FAAEE50FB4010312117A7B
:010BEB0022E7
:10117A00851714851815E4F512F513F510F5118580
:10118A001582851483E493FDAF13AE1212FA278EEB
:10119A00128F130515E515700205140511E5117076
:1011AA00020510C3E510940240D5E512FF12136739
:0A11BA00AF13E51312136712FAAE2B
:0111C4002208
:10FA2700ED6207E4FDEF30E00FEEC313FEEF13FFC7
:10FA37006307086306848007EEC313FEEF13FF0D09
:03FA4700BD08E215
:01FA4A002299
:10FB0E001210478F191210478F1AE4FF1213671243
:03FB1E00FAAE221A
:10109600750BF9750CFE1210478F0D1210478F0E47
:1010A60012FA7DF47003E493F460047F038027C290
:1010B600AF7F0212FA6D740C2FF8E6FE050CE50CF4
:1010C600AC0B7002050B14F5828C83EEF0E4F58F01
:0C10D600DFE1D2AFE4FF12136712FAAEA4
:0110E20022EB
:09FB3C0075EF1212131002FB45D3
:10FAC80075320175337F75300175317F7536017573
:09FAD800377F75340175357F227A
:10133D00E533B47F0BE532B401067C007D008009F6
:10134D00E5332401FDE43532FC8C328D3374802D70
:0A135D00F58274013CF583EFF022E5
:10136700E537B47F0BE536B401067C007D008009C4
:10137700E5372401FDE43536FC8C368D3774002DB6
:0A138700F58274003CF583EFF022BC
:10FAAE00AE36AF37E535B50708E534B50603D38076
:0AFABE0001C340051210E380E722A7
:10104700D20030001CE53165337004E5306532604D
:10105700F4E53165337004E530653260E5C2008040
:10106700E1E531B47F0BE530B401067E007F0080F7
:1010770009E5312401FFE43530FE8E308F31AE3083
:0E108700AF3174802FF58274013EF583E0FFD7
:011095002238
:10125300AE36AF37E535B50708E534B50603D380B9
:1012630001C3402EE535B47F0BE534B401067E009F
:101273007F008009E5352401FFE43534FE8E348F89
:1012830035AE34AF3574002FF58274003EF583E03C
:05129300FF227F002294
:100D030010C4EA610E03530049004C004100420045
:100D1300530000000000000000000000000000007D
:100D230000000000000000000000000000000000C0
:100D33000000000000001003550053004200200093
:100D430041005000490000000000000000000000C6
:100D53000000000000000000000000000000000090
:100D630000000000000000000F8001000C034100A0
:100D730052003500570032000E0341005200350087
:060D8300570032007E0063
:03000300021403E1
:03000B00021406D6
:03001300021409CB
:03001B0002140CC0
:0300230002140FB5
:03002B00021412AA
:030033000214159F
:03003B0002141894
:03004B0002141E7E
:0300530002142173
:03005B0002142468
:030063000214275D
:03006B0002142A52
:0300730002142D47
:03007B000214303C
:0300830002143331
:08008B00207F0302143601ABD3
:030093000214391B
:03009B0002143C10
:0300A30002143F05
:03000000020BEC04
:0C0BEC00787FE4F6D8FD758137020C33E9
:1012D6001201100100000040C410000000000102CD
:1012E60003010902200001010080FA09040000023E
:1012F600FF000000070502024000000705820240C9
:0A13060000000403090401000000C8
:10062600900380EEF0A3EFF0900384EBF0A3EAF0E2
:10063600A3E9F0E49007A8F09007A8E0FF9012D68F
:1006460093FE74402FF582E43407F583EEF09007AD
:10065600A8E004F0E0B412E0E49007A8F09007A840
:10066600E0FF9012E893FE74522FF582E43407F50A
:1006760083EEF09007A8E004F0E0B420E090038059
:10068600E0FAA3E0900748F0EAA3F0EDA3F0ECA3AC
:10069600F090077274FFF0A37413F0A37408F0903F
:1006A6000384E0F9A3E0FAA3E0900775C9F0A3EA92
:1006B600F0A3E9F0900387E0F9A3E0FAA3E090073E
:1006C60078C9F0A3EAF0A3E9F090038AE0F9A3E081
:1006D600FAA3E090077BC9F0A3EAF0A3E9F0900340
:1006E6008DE0FFC394FA500590075AEFF090038E01
:1006F600E0900759F090038FE0FEA3E090074CF0DE
:10070600EEA3F0E59620E7FB759601759708E5964A
:1007160020E7FB75960775970FE59620E7FB75961C
:100726000975970EE59620E7FB75960B7597077585
:10073600D7E012FB30E4900792F0900791F0900713
:1007460093F0900786F043E602D2AFE59620E7FBEA
:070756007596017597012261
:1013BA009007867402F0E59620E7FB75960175970B
:1013CA0001E490078EF0A37403F0A3F0E49007926F
:0713DA00F090079104F022DE
:1000AE00E59620E7FB75960EE4F597E59620E7FBBF
:1000BE00759691E59620E7FB90079CE597F0E0FF9B
:1000CE0030E210E59620E7FB759611E4F597900760
:1000DE008EF022EF30E410E59620E7FB7596117551
:1000EE009780E490078EF090078EE060030201E3A4
:1000FE0090079CE020E0030201E37596204396C032
:10010E00E49007A8F0E59620E7FB9007A8E0247E90
:10011E00F582E43407F583E597F09007A8E004F044
:10012E00E0B407E1E59620E7FBE4F5969007A8E03A
:10013E00247EF582E43407F583E597F0900781E09D
:10014E00FE900780E07C002400FFEC3E900794F0C8
:10015E00A3EFF0900785E0FE900784E02400FFEC0B
:10016E003E900796F0A3EFF090077FE004603B14FB
:10017E00B40C00505D90018AF82828730201AE027B
:10018E0001B30201B80201BD0201E00201C2020187
:10019E00C70201E00201CC0201D10201D60201DB4D
:1001AE00120D898030120F30802B12088D8026128E
:1001BE000F8F802112FA8E801C120A928017121154
:1001CE00C58012120FED800D12FA00800812FAFA95
:1001DE0080031213E190078EE0640160030202E4D3
:1001EE0090079C7402F0C390078DE0944090078CAA
:1001FE00E094004061E59620E7FB759620E49007B9
:10020E00A8F09007A8E0FFC394405022900787E023
:10021E00FBA3E0FAA3E0F98F82758300120C91F52F
:10022E0097E59620E7FB9007A8E004F080D49007AE
:10023E0088E475F040120CBE90078DE024C0F0905B
:10024E00078CE034FFF090078BE02440F090078A93
:10025E00E03400F08052E59620E7FB759620E4909E
:10026E0007A8F09007A8E0FFD390078DE09F9007B6
:10027E008CE094004026900787E0FBA3E0FAA3E011
:10028E00F99007A8E0F582758300120C91F597E5B9
:10029E009620E7FB9007A8E004F080C790079CE04B
:1002AE004408F0E490078EF0900796E0FEA3E0FF7E
:1002BE0090078AE0B50611A3E0B5070C90079CE005
:1002CE004408F0E490078EF0E59620E7FB75961152
:0702DE0090079CE0F5972258
:1013E100E59620E7FB75960EE4F597E59620E7FB79
:0D13F10075961175972090078E7404F022F8
:100D890090077EE0247F6007146006240270488083
:100D99002D90078FE0B40309900782E0B402028026
:100DA9000E900790E0B40316900782E0B4820F908A
:100DB900078774FFF0A37413F0A3740C800D9007D8
:100DC9008774FFF0A37413F0A3740EF090078CE4FA
:100DD900F0A37402F080031213E190078EE064041B
:100DE900601012FAFA90078E7401F0E490078AF005
:030DF900A3F02242
:100F3000900780E07048900782E0FFB4021DE596BC
:100F400020E7FB75960E759702E59620E7FB7596F0
:100F500014759780E490078FF08026EFB4821DE52A
:100F60009620E7FB75960E759702E59620E7FB75D0
:100F70009611759740E4900790F080058000121359
:0F0F8000E1E59620E7FB75960EE4F59702FAFA85
:10088D00900794E0B4373CA3E0B40B3790078EE0AB
:10089D006404601012FAFA90078E7401F0E4900768
:1008AD008AF0A3F090079B7480F09007877401F095
:1008BD00A37407F0A3749BF090078CE4F0A304F0ED
:1008CD0002098F900795E020E003020966900793D7
:1008DD00E030E00854FEF04402F08007900793E00A
:1008ED0054FDF0E59620E7FB75960E759702E5969B
:1008FD0020E7FB759614759710E59620E7FB759626
:10090D0011759708E59620E7FB759694E59620E717
:10091D00FB90079BE597F0E020E4E9E59620E7FBE7
:10092D00759614759710E59620E7FB759691E596EB
:10093D0020E7FB90079BE597F0E020E3E9E59620A3
:10094D00E7FB7596117597089007917408F090075D
:10095D0093E0FF30E1034401F0900794E0FCA3E045
:10096D00FD30E10D9007867406F0900791E044107C
:10097D00F0ED30E20D9007867404F0900791E0449D
:10098D0020F0E59620E7FB75960EE4F59702FAFA4E
:100F8F00900780E07047900782E0FFB4021BE59660
:100F9F0020E7FB75960E759702E59620E7FB759691
:100FAF001475972090078F801DEFB4821EE5962051
:100FBF00E7FB75960E759702E59620E7FB75961180
:100FCF007597109007907403F0800580001213E15D
:0E0FDF00E59620E7FB75960EE4F59702FAFA08
:10FA8E00E59620E7FBE4F596900780E0FFF597EF0B
:10FA9E0090078660057403F080037402F002FAFA90
:100A9200900781E024FE601B14603B240270729078
:100AA20007877401F0A37407F0A37440F090074025
:100AB200E080539007877401F0A37407F0A3745287
:100AC200F0900755E0FE900754E07C002400FFEC14
:100AD2003E90078C8035900780E0FFD3940340025C
:100AE200802FEF75F003A42472F582E43407F583B6
:100AF200E0FBA3E0FAA3E0F9900787EBF0A3EAF0AA
:100B0200A3E9F0120C78FF90078CE4F0A3EFF080D9
:100B1200031213E190078CE0FEA3E0FF900796E03A
:100B2200FCA3E0FDC39FEC9E500890078CECF0A361
:100B3200EDF090078EE06404601012FAFA90078ECE
:0B0B42007401F0E490078AF0A3F02299
:1011C500900786E0FFB40414A374FFF0A37413F032
:1011D500A3740CF090078CE4F0A304F0EFB40316AD
:1011E50090078774FFF0A37413F0A3740EF09007B3
:1011F5008CE4F0A304F012FAFA90078E7401F0E47F
:0712050090078AF0A3F0221C
:100FED00900780E0D394004042900791E04440F098
:100FFD009007867404F0E490078FF0A3F0E5962037
:10100D00E7FB75960E759702E59620E7FB75961230
:10101D00759784E59620E7FB759615759780E5968F
:10102D0020E7FB75960EE4F597800C900786740308
:0A103D00F090078FF0A3F002FAFA1A
:10FA000090078774FFF0A37413F0A3740EF09007AF
:10FA10008CE4F0A304F012FAFA90078E7401F0E47B
:07FA200090078AF0A3F02219
:10FAFA0090078EE06404600BE59620E7FB7596118B
:04FB0A007597402289
:030043000204D5DF
:1004D500C0E0C0F0C083C082C0D075D000C000C0ED
:1004E50001C002C003C004C005C006C00790079D37
:1004F500E596F0E59620E7FB75968EE59620E7FBF9
:1005050090079EE597F0E59620E7FB759686E596BC
:1005150020E7FB900798E597F0E030E30BE59620A0
:10052500E7FB75960B759707900798E030E2031285
:1005350013BA900798E030E014900786E0FF640452
:100545006004EFB40607900791E04480F0E596203B
:10055500E7FB759682E59620E7FB900798E597F00F
:10056500E030E0031200AE900798E030E22AE5960D
:1005750020E7FB75960E759702E59620E7FB7596C5
:1005850091E59620E7FB900799E597F0E054037015
:1005950007900791E04402F0E59620E7FB75968405
:1005A500E59620E7FB900798E597F0E030E229E52E
:1005B5009620E7FB75960E759702E59620E7FB7585
:1005C5009694E59620E7FB900799E597F0E030E0F3
:1005D50007900791E04404F0E59620E7FB75960E39
:1005E50090079EE0F597E59620E7FB90079DE59639
:1005F500F0E59620E7FB900793E030E0099007913E
:10060500E0600312FA4BD007D006D005D004D00322
:10061500D002D001D000D0D0D082D083D0F0D0E0AD
:0106250032A2
:10120C00E49007A8F0E5B964E0603853A90F9007A3
:10121C00A7E5A9F043B280E5A95407D39401400394
:10122C00E4F5A9E4F5B943B9809007A8E014F0708F
:10123C00F843B9C0E5B930E5FB9007A7E0B4020369
:07124C0043A90253A90F2280
:100DFC00E5A954029007A8F053D7BF75A910E4F5E4
:100E0C00B9F586F5AF43C9130000000000000000DF
:100E1C0000000000000000000000000000000000C6
:100E2C00000043B2809007A77402F09007A7E0205F
:100E3C00E105E5C920E61843B220E59620E7FB75ED
:100E4C009681E59620E7FB9007A7E597F080DC00FC
:100E5C0053C9EC75AF209007A8E042A912120C43BD
:030E6C00D740224A
:101310009007A7E5A8F0C2AFC2AF53E6FDE4F5D74A
:10132000E59620E7FB759601759708E5A920E1068B
:0D13300043A910E4F5B99007A7E0F5A82245
:0FFB2100900791E0FF9007A7F0E4900791F02282
:050006007E037F602273
:10075D009007A8EDF09007ABEBF0A3EAF0A3E9F05A
:10076D00900786E0B40606EDD3944040037F002247
:10077D00E59620E7FB75960E759702E59620E7FB4B
:10078D00759694E59620E7FB90079AE597F0E020A3
:10079D00E00302088AE59620E7FB759696E596201C
:1007AD00E7FB900792E597F0E0FFEDC39F5006AE93
:1007BD0005AF068000900792EFF053E6FDE5962019
:1007CD00E7FB7596E2900792E0700302086E9007C2
:1007DD00ABE0FF7020A3A3E090079FF0E59620E724
:1007ED00FB90079FE0F8A697E004F09007A8E014AF
:1007FD00F070E9806CEF20E73C9007ABA3E0FAA323
:10080D00E0FF9007A1EAF0A3EFF0E59620E7FB905B
:10081D0007A1E0FEA3E0F5828E83E597F09007A295
:10082D00E004F070069007A1E004F09007A8E01432
:10083D00F070D7802C9007ABE064FE7021A3A3E08D
:10084D009007A5F0E59620E7FB9007A5E0F8E59762
:10085D00F2E004F09007A8E014F070E880037F0048
:10086D0022E59620E7FBE4F596E59620E7FB7596E5
:10087D0014E4F59743E602900792E0FF227F0022F1
:1002E500E49007A7F09007A9F0A3F09007ABEBF017
:1002F500A3EAF0A3E9F0900786E0B4060DED4C60A3
:1003050009D3ED9400EC94104004E4FEFF2253E67B
:10031500FD9007A7E030E0030204C9E59620E7FB5E
:1003250075960E759702E59620E7FB759691E5960D
:1003350020E7FB9007A7E597F0E030E020E5962061
:10034500E7FB75960EE4F597E59620E7FB75969124
:10035500E59620E7FB9007A7E597F080B4D3ED94E9
:1003650040EC94009007A840057440F08002EDF041
:10037500E59620E7FB7596229007A8E07003020436
:10038500799007ABE0702DA3A3E0F99007A9A3E04E
:10039500FFE92FF990079FE9F0E59620E7FB900725
:1003A5009FE0F8E6F597E004F09007A8E014F070F8
:1003B500E80204799007ABE020E747A3E0FAA3E061
:1003C500F99007A9E0FEA3E0FFE92FF9EA3EAF01A6
:1003D5009007A1F0A3EFF0E59620E7FB9007A1E0D9
:1003E500FEA3E0F5828E83E0F5979007A2E004F086
:1003F50070069007A1E004F09007A8E014F070D70C
:1004050080729007ABE064FE7021A3A3E09007A57E
:10041500F0E59620E7FB9007A5E0F8E597F2E00404
:10042500F09007A8E014F070E880499007ABA3E0CE
:10043500FAA3E0F99007A9E0FEA3E0FFE92FF9EAA6
:100445003EAF019007A3F0A3EFF0E59620E7FB9000
:1004550007A3E0FEA3E0F5828E83E493F59790076A
:10046500A4E004F070069007A3E004F09007A8E06C
:1004750014F070D6C3ED9440EC94009007AAE040C8
:100485001F2440F09007A9E03400F074C02DFD74DE
:10049500FF3CFCE49007A7F09007A87440F0801695
:1004A5002DF09007A9E03CF09007A77401F09007A4
:1004B500A8EDF0E4FCFDE59620E7FB759611759730
:1004C5000102031643E6029007A9E0FEA3E0FF221E
:10FAE100900793E04401F0900791E0600BE59620C8
:09FAF100E7FB75960B75970F22D7
:08FB4500900793E054FEF0224A
:0CFB3000E59620E7FB75960F75978F2275
:10FA4B00D007D007D007D006D005D004D003D00202
:10FA5B00D001D000D0D0D082D083D0F0D0E0020043
:02FA6B008B22EC
:100BF80002099DE493A3F8E493A34003F68001F26D
:100C080008DFF48029E493A3F85407240CC8C333FD
:100C1800C4540F4420C8834004F456800146F6DFCC
:100C2800E4800B010204081020408090000EE47E4E
:100C3800019360BCA3FF543F30E509541FFEE493C1
:100C4800A360010ECF54C025E060A840B8E493A388
:100C5800FAE493A3F8E493A3C8C582C8CAC583CAB3
:100C6800F0A3C8C582C8CAC583CADFE9DEE780BE6B
:0100110000EE
:100C7800BB010689828A83E0225002E722BBFE027A
:090C8800E32289828A83E49322AD
:100C9100BB010CE58229F582E5833AF583E0225018
:100CA10006E92582F8E622BBFE06E92582F8E22262
:0D0CB100E58229F582E5833AF583E493227C
:100CBE00C5F0F8A3E028F0C5F0F8E58215827002C1
:060CCE001583E038F0225E
:090CD400EBF0A3EAF0A3E9F02221
:100CDD00D083D082F8E4937012740193700DA3A3A6
:100CED0093F8740193F5828883E4737402936860BA
:060CFD00EFA3A3A380DFBA
:00000001FF
