:03000E00011B01D2
:10105000E4F516AE36AF37E535B50708E534B50625
:1010600003D38001C3401BE516944050151211C2F2
:10107000AE16051674402EF582E43403F583EFF0C6
:1010800080D1E5166015E51B60FCE4F51B7B017A59
:0B109000037940E516FD7C001202C54C
:01109B002232
:100E3D00D3E5319533E53095325015C37480953334
:100E4D00FF74019532FEE5312FFFE5303EFE800B3C
:100E5D00C3E5319533FFE5309532FEC3EF9440EE97
:100E6D009400402B7B017A0379007D4012073D8F62
:100E7D0009E4F50AE50AC3950950147400250AF52D
:0F0E8D0082E43403F583E0FF1212EE050A80E5DC
:010E9C002233
:03008B00020DDC87
:100DDC00C0E0C0F0C083C082C0D075D000C000C0DD
:0D0DEC0001C002C003C004C005C006C0075E
:100DF900123CD18F08E50830E103751B01E5083085
:100E0900E203120E3DE50854386006123C78751B62
:090E190001E50830E7031212079D
:100E2200D007D006D005D004D003D002D001D00024
:0B0E3200D0D0D082D083D0F0D0E032CE
:103C00008519B7851AB7758F0175FF8075EF062284
:103C1000903BFE74019322D3E5189400E517943A83
:013C20002281
:10097D0053D9BF123C09E5B020E004D27F80241288
:10098D003C1064C27004E493643D6004D27F801314
:10099D00E5EF20E109E5EF30E604D27F8005C27F67
:1009AD00121400E4F519F51A123C78751714751820
:1009BD0000121132900CE3E493FE740193FF900C3E
:1009CD00E5E493FC740193FD7BFF7A0D7919900397
:1009DD0087120CB47A0D795B90038A120CB4900DCA
:1009ED004BE49390038DF0900D4CE49390038EF0B7
:1009FD00900D4DE493FB74019390038FCBF0A3EB1B
:100A0D00F07BFF7A0C79E712060643A902123C919E
:100A1D00120FB4EF120CBD0A40000A45010A4A023A
:100A2D000A4F030A54040A59050A5E060A630700B1
:100A3D00000A6812109C80D812134280D3121249FA
:100A4D0080CE120B2D80C91210E780C4123CEC80B1
:100A5D00BF123CBE80BA12100380B57F021213186C
:050A6D00123C5E80ABAD
:10109C007F021213187F0C1213181200068E0B8F7E
:1010AC000CE50BFF121318AF0CE50C121318903B48
:1010BC00FC1210E0903BFD1210E0903BFEE493FF1D
:1010CC00121318903BFFE493FF1213187F81121335
:0410DC0018023C5E5C
:0710E000E493FF1213182234
:10134200120FB48F0BE50BC3940A4007E50BD3943D
:101352001D40047F01800BE50B25E0F51775180091
:08136200E4FF121318123C5EB7
:01136A002260
:10124900E5196004E51A70047F04802BC3E517943F
:10125900144005123C1740047F01801BC2AF85185A
:1012690082851783758F038519B7851AB7123C09CB
:0D127900E4F0F58FD2AFFF121318123C5EA7
:011286002245
:100B2D00120FB48F0FE5196004E51A70047F04806D
:100B3D003D123C10F47003E493F460047F03802EA7
:100B4D00C3E51794144005123C1740047F01801E25
:100B5D0085170D85180EE50FB4010BE4250EF50E66
:100B6D007401350DF50DE50F54FE60087F0112136C
:100B7D0018023C5EE4FF121318123C5EE4F50BF50F
:100B8D000C120FB4C2AF123C00050EE50EAC0D7089
:100B9D0002050D14F5828C83EFF0E4F58FD2AF05CD
:100BAD000CE50C7002050BC3E50B940140D3E4FF7B
:0E0BBD00121318123C5EE50FB401031210E78C
:010BCB002207
:1010E700851714851815E4F512F513F510F5118514
:1010F7001582851483E493FDAF13AE121213B98ED4
:10110700128F130515E515700205140511E5117009
:10111700020510C3E510940240D5E512FF1213181B
:0A112700AF13E513121318123C5E1B
:01113100229B
:1013B900ED6207E4FDEF30E00FEEC313FEEF13FF1C
:1013C9006307086306848007EEC313FEEF13FF0D5E
:0313D900BD08E26A
:0113DC0022EE
:103CBE00120FB48F19120FB48F1AE4FF12131812C9
:033CCE003C5E2237
:10100300750B3B750CFE120FB48F0D120FB48F0EC0
:10101300123C10F47003E493F460047F038027C24E
:10102300AF7F02123C00740C2FF8E6FE050CE50CB2
:10103300AC0B7002050B14F5828C83EEF0E4F58F94
:0C104300DFE1D2AFE4FF121318123C5E94
:01104F00227E
:093CEC0075EF121212C1023CF541
:103C780075320175337F75300175317F7536017581
:093C8800377F75340175357F2288
:1012EE00E533B47F0BE532B401067C007D00800946
:1012FE00E5332401FDE43532FC8C328D3374802DC0
:0A130E00F58274013CF583EFF02234
:10131800E537B47F0BE536B401067C007D00800913
:10132800E5372401FDE43536FC8C368D3774002D05
:0A133800F58274003CF583EFF0220B
:103C5E00AE36AF37E535B50708E534B50603D38084
:0A3C6E0001C3400512105080E72248
:100FB400D20030001CE53165337004E530653260E1
:100FC400F4E53165337004E530653260E5C20080D4
:100FD400E1E531B47F0BE530B401067E007F00808B
:100FE40009E5312401FFE43530FE8E308F31AE3017
:0E0FF400AF3174802FF58274013EF583E0FF6B
:0110020022CB
:1011C200AE36AF37E535B50708E534B50603D3804B
:1011D20001C3402EE535B47F0BE534B401067E0031
:1011E2007F008009E5352401FFE43534FE8E348F1B
:1011F20035AE34AF3574002FF58274003EF583E0CE
:05120200FF227F002225
:100CE30010C4EA610E03530049004C004100420066
:100CF300530000000000000000000000000000009E
:100D030000000000000000000000000000000000E0
:100D130000000000000010035500530042002000B3
:100D230041005000490000000000000000000000E6
:100D330000000000000000000000000000000000B0
:100D430000000000000000000F8001000C034100C0
:100D530052003500570032000E03410052003500A7
:060D6300570032007E0083
:03000300021403E1
:03000B00021406D6
:03001300021409CB
:03001B0002140CC0
:0300230002140FB5
:03002B00021412AA
:030033000214159F
:03003B0002141894
:03004B0002141E7E
:0300530002142173
:03005B0002142468
:030063000214275D
:03006B0002142A52
:0300730002142D47
:03007B000214303C
:08008300207F03021433018BFE
:03000000020BCC24
:0C0BCC00787FE4F6D8FD758137020C1329
:101287001201100100000040C4100000000001021C
:1012970003010902200001010080FA09040000028D
:1012A700FF00000007050202400000070582024018
:0A12B7000000040309040100000018
:10060600900380EEF0A3EFF0900384EBF0A3EAF002
:10061600A3E9F0E49007A8F09007A8E0FF901287FE
:1006260093FE74402FF582E43407F583EEF09007CD
:10063600A8E004F0E0B412E0E49007A8F09007A860
:10064600E0FF90129993FE74522FF582E43407F579
:1006560083EEF09007A8E004F0E0B420E090038079
:10066600E0FAA3E0900748F0EAA3F0EDA3F0ECA3CC
:10067600F090077274FFF0A37412F0A374B9F090AF
:100686000384E0F9A3E0FAA3E0900775C9F0A3EAB2
:10069600F0A3E9F0900387E0F9A3E0FAA3E090075E
:1006A60078C9F0A3EAF0A3E9F090038AE0F9A3E0A1
:1006B600FAA3E090077BC9F0A3EAF0A3E9F0900360
:1006C6008DE0FFC394FA500590075AEFF090038E21
:1006D600E0900759F090038FE0FEA3E090074CF0FE
:1006E600EEA3F0E59620E7FB759601759708E5966B
:1006F60020E7FB75960775970FE59620E7FB75963D
:100706000975970EE59620E7FB75960B75970775A5
:10071600D7E0123CE0E4900792F0900791F0900742
:1007260093F0900786F043E602D2AFE59620E7FB0A
:070736007596017597012281
:10136B009007867402F0E59620E7FB75960175975A
:10137B0001E490078EF0A37403F0A3F0E4900792BE
:07138B00F090079104F0222D
:10008E00E59620E7FB75960EE4F597E59620E7FBDF
:10009E00759691E59620E7FB90079CE597F0E0FFBB
:1000AE0030E210E59620E7FB759611E4F597900780
:1000BE008EF022EF30E410E59620E7FB7596117571
:1000CE009780E490078EF090078EE060030201C3E4
:1000DE0090079CE020E0030201C37596204396C072
:1000EE00E49007A8F0E59620E7FB9007A8E0247EB1
:1000FE00F582E43407F583E597F09007A8E004F065
:10010E00E0B407E1E59620E7FBE4F5969007A8E05A
:10011E00247EF582E43407F583E597F0900781E0BD
:10012E00FE900780E07C002400FFEC3E900794F0E8
:10013E00A3EFF0900785E0FE900784E02400FFEC2B
:10014E003E900796F0A3EFF090077FE004603B141B
:10015E00B40C00505D90016AF828287302018E02DB
:10016E00019302019802019D0201C00201A2020147
:10017E00A70201C00201AC0201B10201B60201BB2D
:10018E00120D698030120E9D802B12086D80261282
:10019E000EFC8021123C21801C120A728017121153
:1001AE007B8012120F5A800D1213928008123CAAF5
:1001BE008003123C4190078EE0640160030202C48A
:1001CE0090079C7402F0C390078DE0944090078CCA
:1001DE00E094004061E59620E7FB759620E49007D9
:1001EE00A8F09007A8E0FFC394405022900787E044
:1001FE00FBA3E0FAA3E0F98F82758300120C71F570
:10020E0097E59620E7FB9007A8E004F080D49007CE
:10021E0088E475F040120C9E90078DE024C0F0909B
:10022E00078CE034FFF090078BE02440F090078AB3
:10023E00E03400F08052E59620E7FB759620E490BE
:10024E0007A8F09007A8E0FFD390078DE09F9007D6
:10025E008CE094004026900787E0FBA3E0FAA3E031
:10026E00F99007A8E0F582758300120C71F597E5F9
:10027E009620E7FB9007A8E004F080C790079CE06B
:10028E004408F0E490078EF0900796E0FEA3E0FF9E
:10029E0090078AE0B50611A3E0B5070C90079CE025
:1002AE004408F0E490078EF0E59620E7FB75961172
:0702BE0090079CE0F5972278
:103C4100E59620E7FB75960EE4F597E59620E7FBF0
:0D3C510075961175972090078E7404F0226F
:100D690090077EE0247F60071460062402704880A3
:100D79002D90078FE0B40309900782E0B402028046
:100D89000E900790E0B40316900782E0B4820F90AA
:100D9900078774FFF0A37412F0A374BD800D900748
:100DA9008774FFF0A37412F0A374BFF090078CE46A
:100DB900F0A37402F08003123C4190078EE06404B2
:100DC9006010123CAA90078E7401F0E490078AF033
:030DD900A3F02262
:100E9D00900780E07048900782E0FFB4021DE59650
:100EAD0020E7FB75960E759702E59620E7FB759684
:100EBD0014759780E490078FF08026EFB4821DE5BE
:100ECD009620E7FB75960E759702E59620E7FB7564
:100EDD009611759740E4900790F080058000123CC4
:0F0EED0041E59620E7FB75960EE4F597023CAAC7
:10086D00900794E0B4373CA3E0B40B3790078EE0CB
:10087D0064046010123CAA90078E7401F0E4900796
:10088D008AF0A3F090079B7480F09007877401F0B5
:10089D00A37407F0A3749BF090078CE4F0A304F00D
:1008AD0002096F900795E020E00302094690079337
:1008BD00E030E00854FEF04402F08007900793E02A
:1008CD0054FDF0E59620E7FB75960E759702E596BB
:1008DD0020E7FB759614759710E59620E7FB759646
:1008ED0011759708E59620E7FB759694E59620E738
:1008FD00FB90079BE597F0E020E4E9E59620E7FB08
:10090D00759614759710E59620E7FB759691E5960B
:10091D0020E7FB90079BE597F0E020E3E9E59620C3
:10092D00E7FB7596117597089007917408F090077D
:10093D0093E0FF30E1034401F0900794E0FCA3E065
:10094D00FD30E10D9007867406F0900791E044109C
:10095D00F0ED30E20D9007867404F0900791E044BD
:10096D0020F0E59620E7FB75960EE4F597023CAA7C
:100EFC00900780E07047900782E0FFB4021BE596F4
:100F0C0020E7FB75960E759702E59620E7FB759624
:100F1C001475972090078F801DEFB4821EE59620E4
:100F2C00E7FB75960E759702E59620E7FB75961113
:100F3C007597109007907403F080058000123C4167
:0E0F4C00E59620E7FB75960EE4F597023CAAA9
:103C2100E59620E7FBE4F596900780E0FFF597EF36
:103C310090078660057403F080037402F0023CAAC9
:100A7200900781E024FE601B14603B240270729098
:100A820007877401F0A37407F0A37440F090074045
:100A9200E080539007877401F0A37407F0A37452A7
:100AA200F0900755E0FE900754E07C002400FFEC34
:100AB2003E90078C8035900780E0FFD3940340027C
:100AC200802FEF75F003A42472F582E43407F583D6
:100AD200E0FBA3E0FAA3E0F9900787EBF0A3EAF0CA
:100AE200A3E9F0120C58FF90078CE4F0A3EFF0801A
:100AF20003123C4190078CE0FEA3E0FF900796E0D2
:100B0200FCA3E0FDC39FEC9E500890078CECF0A381
:100B1200EDF090078EE064046010123CAA90078EFC
:0B0B22007401F0E490078AF0A3F022B9
:10117B00900786E0FFB40414A374FFF0A37412F07D
:10118B00A374BDF090078CE4F0A304F0EFB4031646
:10119B0090078774FFF0A37412F0A374BFF090074D
:1011AB008CE4F0A304F0123CAA90078E7401F0E4D7
:0711BB0090078AF0A3F02267
:100F5A00900780E0D394004042900791E04440F02B
:100F6A009007867404F0E490078FF0A3F0E59620CA
:100F7A00E7FB75960E759702E59620E7FB759612C4
:100F8A00759784E59620E7FB759615759780E59623
:100F9A0020E7FB75960EE4F597800C90078674039C
:0A0FAA00F090078FF0A3F0023CAABC
:1013920090078774FFF0A37412F0A374BFF0900754
:1013A2008CE4F0A304F0123CAA90078E7401F0E4DE
:0713B20090078AF0A3F0226E
:103CAA0090078EE06404600BE59620E7FB75961199
:043CBA007597402298
:030043000204B5FF
:1004B500C0E0C0F0C083C082C0D075D000C000C00D
:1004C50001C002C003C004C005C006C00790079D57
:1004D500E596F0E59620E7FB75968EE59620E7FB19
:1004E50090079EE597F0E59620E7FB759686E596DD
:1004F50020E7FB900798E597F0E030E30BE59620C1
:10050500E7FB75960B759707900798E030E20312A5
:10051500136B900798E030E014900786E0FF6404C1
:100525006004EFB40607900791E04480F0E596205B
:10053500E7FB759682E59620E7FB900798E597F02F
:10054500E030E00312008E900798E030E22AE5964D
:1005550020E7FB75960E759702E59620E7FB7596E5
:1005650091E59620E7FB900799E597F0E054037035
:1005750007900791E04402F0E59620E7FB75968425
:10058500E59620E7FB900798E597F0E030E229E54E
:100595009620E7FB75960E759702E59620E7FB75A5
:1005A5009694E59620E7FB900799E597F0E030E013
:1005B50007900791E04404F0E59620E7FB75960E59
:1005C50090079EE0F597E59620E7FB90079DE59659
:1005D500F0E59620E7FB900793E030E0099007915E
:1005E500E060031213DDD007D006D005D004D00398
:1005F500D002D001D000D0D0D082D083D0F0D0E0CE
:0106050032C2
:03001600DFFE22E8
:10113200E5B964E0603F53A90FC0A8C2AFC083C045
:10114200A943B280E5A95407D394014003E4F5A969
:10115200E4F5B943B980FF1200167F64120016430A
:10116200B9C0E5B930E5FBD083E583B4020343A9F6
:0911720002D083D0A853A90F227A
:10120700E5A954029007A8F053D7BF75A910E4F5D4
:10121700B943C910000000000000000000000000F2
:10122700000000000000000000000000000043B2C2
:101237008043B2200053C9EFE042A912113243D7CD
:02124700402243
:1012C1009007A7E5A8F0C2AFC2AF53E6FDE4F5D79A
:1012D100E59620E7FB759601759708E5A920E106DB
:0D12E10043A910E4F5B99007A7E0F5A82295
:0F3CD100900791E0FF9007A7F0E4900791F02291
:050006007E037F602273
:10073D009007A8EDF09007ABEBF0A3EAF0A3E9F07A
:10074D00900786E0B40606EDD3944040037F002267
:10075D00E59620E7FB75960E759702E59620E7FB6B
:10076D00759694E59620E7FB90079AE597F0E020C3
:10077D00E00302086AE59620E7FB759696E596205C
:10078D00E7FB900792E597F0E0FFEDC39F5006AEB3
:10079D0005AF068000900792EFF053E6FDE5962039
:1007AD00E7FB7596E2900792E0700302084E900702
:1007BD00ABE0FF7020A3A3E090079FF0E59620E744
:1007CD00FB90079FE0F8A697E004F09007A8E014CF
:1007DD00F070E9806CEF20E73C9007ABA3E0FAA343
:1007ED00E0FF9007A1EAF0A3EFF0E59620E7FB907C
:1007FD0007A1E0FEA3E0F5828E83E597F09007A2B6
:10080D00E004F070069007A1E004F09007A8E01452
:10081D00F070D7802C9007ABE064FE7021A3A3E0AD
:10082D009007A5F0E59620E7FB9007A5E0F8E59782
:10083D00F2E004F09007A8E014F070E880037F0068
:10084D0022E59620E7FBE4F596E59620E7FB759605
:10085D0014E4F59743E602900792E0FF227F002211
:1002C500E49007A7F09007A9F0A3F09007ABEBF037
:1002D500A3EAF0A3E9F0900786E0B4060DED4C60C3
:1002E50009D3ED9400EC94104004E4FEFF2253E69C
:1002F500FD9007A7E030E0030204A9E59620E7FB9F
:1003050075960E759702E59620E7FB759691E5962D
:1003150020E7FB9007A7E597F0E030E020E5962081
:10032500E7FB75960EE4F597E59620E7FB75969144
:10033500E59620E7FB9007A7E597F080B4D3ED9409
:1003450040EC94009007A840057440F08002EDF061
:10035500E59620E7FB7596229007A8E07003020456
:10036500599007ABE0702DA3A3E0F99007A9A3E08E
:10037500FFE92FF990079FE9F0E59620E7FB900745
:100385009FE0F8E6F597E004F09007A8E014F07018
:10039500E80204599007ABE020E747A3E0FAA3E0A1
:1003A500F99007A9E0FEA3E0FFE92FF9EA3EAF01C6
:1003B5009007A1F0A3EFF0E59620E7FB9007A1E0F9
:1003C500FEA3E0F5828E83E0F5979007A2E004F0A6
:1003D50070069007A1E004F09007A8E014F070D72C
:1003E50080729007ABE064FE7021A3A3E09007A59F
:1003F500F0E59620E7FB9007A5E0F8E597F2E00425
:10040500F09007A8E014F070E880499007ABA3E0EE
:10041500FAA3E0F99007A9E0FEA3E0FFE92FF9EAC6
:100425003EAF019007A3F0A3EFF0E59620E7FB9020
:1004350007A3E0FEA3E0F5828E83E493F59790078A
:10044500A4E004F070069007A3E004F09007A8E08C
:1004550014F070D6C3ED9440EC94009007AAE040E8
:100465001F2440F09007A9E03400F074C02DFD74FE
:10047500FF3CFCE49007A7F09007A87440F08016B5
:100485002DF09007A9E03CF09007A77401F09007C4
:10049500A8EDF0E4FCFDE59620E7FB759611759750
:1004A500010202F643E6029007A9E0FEA3E0FF225F
:103C9100900793E04401F0900791E0600BE59620D6
:093CA100E7FB75960B75970F22E5
:083CF500900793E054FEF02259
:0C3CE000E59620E7FB75960F759789228A
:1013DD00D007D007D007D006D005D004D003D00257
:1013ED00D001D000D0D0D082D083D0F0D0E0020098
:0213FD00832249
:100BD80002097DE493A3F8E493A34003F68001F2AD
:100BE80008DFF48029E493A3F85407240CC8C3331E
:100BF800C4540F4420C8834004F456800146F6DFED
:100C0800E4800B010204081020408090000EE47E6E
:100C1800019360BCA3FF543F30E509541FFEE493E1
:100C2800A360010ECF54C025E060A840B8E493A3A8
:100C3800FAE493A3F8E493A3C8C582C8CAC583CAD3
:100C4800F0A3C8C582C8CAC583CADFE9DEE780BE8B
:0100110000EE
:100C5800BB010689828A83E0225002E722BBFE029A
:090C6800E32289828A83E49322CD
:100C7100BB010CE58229F582E5833AF583E0225038
:100C810006E92582F8E622BBFE06E92582F8E22282
:0D0C9100E58229F582E5833AF583E493229C
:100C9E00C5F0F8A3E028F0C5F0F8E58215827002E1
:060CAE001583E038F0227E
:090CB400EBF0A3EAF0A3E9F02241
:100CBD00D083D082F8E4937012740193700DA3A3C6
:100CCD0093F8740193F5828883E4737402936860DA
:060CDD00EFA3A3A380DFDA
:00000001FF
